:1000000044C000005EC000005CC000005AC0000098
:1000100058C0000056C0000054C0000052C000008C
:1000200050C000004EC000004CC00000C8C000001E
:1000300048C0000046C000008DC0000042C0000063
:1000400040C000003EC000003CC000003AC00000BC
:1000500038C0000036C0000034C0000032C00000CC
:1000600030C000002EC0000045464765666700208E
:100070002B2D2E3031323334353637383968006322
:1000800064696E6F70737578580011241FBECFEFCE
:10009000D8E0DEBFCDBF11E0A0E0B1E0EEEFF2E1CD
:1000A00002C005900D92A034B107D9F722E0A0E478
:1000B000B1E001C01D92AF39B207E1F7D3D40C947F
:1000C0007D099ECF14D080E091E012D004D00AD0F8
:1000D0000AD000C06AC0C7C021E0FC0120831282A0
:1000E00011820895C3C0109269001DBA0895089541
:1000F000FC01808185B9818184B9828188B983813D
:1001000087B984818BB985818AB90895FC01423011
:10011000C9F098F04530B1F0463021F48181682B68
:10012000618308954330E9F78181962F9095892363
:1001300081838281682B62830895442319F04130C2
:1001400099F3089581816095862381838281682354
:10015000628308951F920F920FB60F9211242F936E
:100160003F934F935F936F937F938F939F93AF933F
:10017000BF93EF93FF9381E080939E028DD0109206
:100180009E0230D281113ED2FF91EF91BF91AF918B
:100190009F918F917F916F915F914F913F912F919F
:1001A0000F900FBE0F901F90189582E084BD85BD03
:1001B0009FE797BD16BC85BB80936E0008951F9284
:1001C0000F920FB60F9211242F933F934F935F938B
:1001D0006F937F938F939F93AF93BF93EF93FF930F
:1001E00081E080939E02809150029091510201968D
:1001F000909351028093500220914E0230914F0211
:1002000082179307B1F010929E02ECD18111FAD1BE
:10021000FF91EF91BF91AF919F918F917F916F91DE
:100220005F914F913F912F910F900FBE0F901F90B4
:100230001895109251021092500280914A02843017
:1002400041F0E0915202F09153028AE492E0099564
:10025000DACF92E090934A0280918100887F809368
:10026000810096BBEECF8AE492E036CF0895CF931B
:10027000DF93C4E5D2E081E088831A8219824FD3EC
:100280008FD369E071E087E592E0FCD182E088835A
:100290007894DF91CF9108956CC0FC011182108297
:1002A0000895CF93DF93DC0119963C932E93189712
:1002B00017965C934E9316971B961C921E921A9754
:1002C000E0915E02F0915F022481358126173707A5
:1002D00050F4621B730B0190F081E02D2481358175
:1002E00026173707B0F315967C936E9314971196E3
:1002F000FC93EE93C281D3811396DC93CE93129735
:10030000B983A883B383A28384819581861B970BCD
:10031000958384838FEF9FEF9093630280936202B3
:10032000DF91CF910895CF93DF93FC01A081B1813C
:1003300014962D913C91159784819581820F931F7E
:1003400015969C938E931497C281D381B983A88309
:10035000A081B1811396DC93CE9312971182108203
:100360008FEF9FEF9093630280936202DF91CF91B2
:1003700008950F931F93CF93DF9380916402909120
:10038000650201969093650280936402C0915E02BB
:10039000D0915F0242E0CE35D40741F18C819D813E
:1003A00001979D838C830FEF1FEF1EC0EA81FB81B5
:1003B0008881998191838083A881B9811396FC9368
:1003C000EE9312971982188268857985EE81FF81F4
:1003D000CE0109958A859B85009769F4C0915E02DC
:1003E000D0915F028C819D81892B01F3DF91CF91A8
:1003F0001F910F910895E0915E02F0915F022481B8
:1004000035812817390750F4821B930B0190F08136
:10041000E02D2481358128173907B0F39D838C8323
:10042000F983E883A281B381BB83AA83CD93DC9354
:10043000D383C28324813581A901481B590B55837D
:1004400044831093630200936202C8CFCF93DF937B
:10045000DB011F968C911F978430F1F180F5882382
:1004600059F1833031F45296ED91FC9153971182FA
:1004700010828FEF9FEF53969C938E9352971F9607
:100480001C921F971B96ED91FC911C9714969C91C2
:1004900014970190F081E02D84818917D0F711968F
:1004A000FC93EE93C281D3811396DC93CE93129783
:1004B000B983A883B383A283DF91CF910895873056
:1004C00059F08C3049F08530A1F65296ED91FC91AF
:1004D000539784818F5F84831296ED91FC911397DB
:1004E0008D919C91119791838083CD91DC9111978F
:1004F000FB83EA83BECFCF93DF93DC011F961C9270
:100500001F971B96ED91FC911C9714962C911497B4
:100510000190F081E02D94819217D0F71196FC9311
:10052000EE93C281D3811396DC93CE931297B98355
:10053000A883B383A283CD01DF91CF910895CF9398
:10054000DF93E7E5F2E065817681DB011F968C930E
:1005500080819181EC01A881B981B183A083139638
:10056000FC93EE93129721E02F87968385832CD2FC
:10057000DF91CF910895FF920F931F93CF93DF9355
:10058000CDB7DEB72C970FB6F894DEBF0FBECDBF48
:10059000F82E00915C0210915D026F3F8FEF78079B
:1005A000F1F0980146E252E0CE0101967ADE8F2DFD
:1005B000C6DF89819A81892B19F0CE010196B3DEBD
:1005C000F801828993892C960FB6F894DEBF0FBE8E
:1005D000CDBFDF91CF911F910F91FF9008958F2D87
:1005E000AEDFEECFA0915702B0915802E0915C02CD
:1005F000F0915D0281E014962C919481921708F09D
:1006000080E00895CF93DF93A0915C02B0915D02EA
:100610004091570250915802EA01E881F981F09324
:100620005802E093570287E592E09383828381E04A
:100630008F8750935D0240935C021F961C921F9718
:100640001B96ED91FC911C9714962C911497019098
:10065000F081E02D94812917D0F31196FC93EE934D
:100660008281938113969C938E931297EC01B983A8
:10067000A883B383A283BD01CA01A6D1DF91CF9124
:100680000895FFCFDF92EF92FF920F931F93CF93C6
:10069000DF93CDB7DEB72B970FB6F894DEBF0FBE52
:1006A000CDBF8C017B019093560280935502FC01D3
:1006B000148E138E72A361A3DD24D394D0929E0274
:1006C000918380839383828314824796908F878B54
:1006D000928F818F158E168E178E10A2409790875D
:1006E0008783928781878FEF9FEF94878387168612
:1006F000158620916402309165022787308B118A1C
:10070000128A138A148A158A168AEF5BFF4F1182A8
:100710001082B8016D5D7F4F20E844E151E0C801CF
:100720002AD0F80196838583FC01D7868FE091E07B
:100730009A838983F701828193819C838B8384814F
:1007400095819E838D83DF8281E493E099878887FA
:100750001B861A86CE0101969ED02B960FB6F89472
:10076000DEBF0FBECDBFDF91CF911F910F91FF90E4
:10077000EF90DF900895CF93DF93FB01248332E065
:100780003787108A94878387258F148E138E128E55
:1007900021E0218B568745879B01295F3F4FAC01A4
:1007A000495E5F4F50874783EC01A98DBA8DB287B0
:1007B000A1872D933C933A8F298FCB014496958B3B
:1007C000848B0296978B868B918F808FCB01DF91E4
:1007D000CF910895CF93DF93DC0114962D913C9136
:1007E0001597F9017E97E901E397D683C58317969C
:1007F0008C9117978A8B18968C911897898B1996DC
:100800008C911997888B1A968C911A978F8783E110
:1008100095E09B8B8C8B16968C9116974D915C91E5
:10082000848392E09787108A67E572E07487638714
:10083000858F148E138E128E81E0818B56874587AB
:10084000D90157978EE692E011969C938E93EB0117
:10085000898D9A8D13969C938E931297EC01B98390
:10086000A883EB01BA8FA98F1D960B2E11960C92BF
:100870001197AC9312960B2E11960C921197AC9384
:100880000A2E1B2E13961C920E9211241297CF0142
:10089000DF91CF9108959EDF2ECE0F931F93CF93BC
:1008A000DF93C0915C02D0915D029B8B8A8B8E019D
:1008B0000C5E1F4F8C899D890817190759F0FC01A0
:1008C000208131813D8B2C8B16DE8C899D89801790
:1008D0009107A9F7898981110CC0E985FA858F8173
:1008E000988591838083AF81B8851396FC93EE93AE
:1008F00012978FE0DF91CF911F910F9120CEF89446
:10090000CCCFF894BC0188E036DE78940895FC01E1
:100910009183808393838283158214820895EAE908
:10092000F2E08BEA91E0918380838BE292E0938303
:1009300082830895F89420919C0230919D02F901E0
:10094000E81BF90B7195619571096E237F23CB012B
:10095000841B950B40919A0250919B028417950736
:1009600050F02817390738F090939D0280939C022D
:10097000CB017894089580E090E078940895EAE9B6
:10098000F2E040815181DC0111965C934E9322810B
:100990003381241B350B13963C932E9312970895A5
:1009A000CF93DF93CBE2D2E08AE994E09983888306
:1009B0008DE292E0E4DF1F821E821986188685E3AD
:1009C00092E0DF91CF91A3CF2F923F924F925F920F
:1009D0006F927F928F929F92AF92BF92CF92DF924F
:1009E000EF92FF920F931F93CF93DF93FB010DB60E
:1009F00005820EB60682FC0105800DBE06800EBE85
:100A0000DF91CF911F910F91FF90EF90DF90CF90EA
:100A1000BF90AF909F908F907F906F905F904F901E
:100A20003F902F9008957894C201F101099567CF06
:100A30008BB180588BB9809149028F5F80934902B6
:100A400080913D0290913E02892B19F08DE392E056
:100A50006ADC20E030E048E155E068E07DE38DE3CA
:100A600092E01FCC2FDB03DC46E060E889E290E0F7
:100A70004DDB5F988DE392E010DCF89480913D02AD
:100A800090913E02892B19F08DE392E04CDC20E03E
:100A900030E048E155E068E07DE38DE392E001DC81
:100AA000789480914902843038F484E89EE129DF0B
:100AB000809149028430C8F3F89480913D0290916E
:100AC0003E02892B19F08DE392E02DDC78945F983B
:100AD00080E090E00895ABE0B0E0E0E7F5E0D3C25D
:100AE0006C017B013A01FC0117821682838181FF30
:100AF000F9C0CE0101964C01F601B380F701B3FCB9
:100B00000591B3FE01917F01002309F4E7C005328E
:100B100049F4B3FC0591B3FE01917F01053211F058
:100B200010E017C0B601802F90E031D3530135019A
:100B3000E3CF002309F4D2C0602F70E08FE690E08D
:100B4000DDD2892B49F0F701B3FC0591B3FE019189
:100B50007F0117FFEECF04C0033239F00C3619F0D5
:100B6000011105C0BBC01068EECF10E1ECCF602FC3
:100B700070E088E690E0C2D2892B41F05301F4E0A6
:100B8000AF0EB11CB6018FE390E010C0033631F018
:100B9000033771F0033501F511600AC0530182E09B
:100BA000A80EB11CB601F30180819181F0D2BFCFB4
:100BB0005301F2E0AF0EB11CF30160807180F301CC
:100BC00010FD859110FF81913F01882309F4AFCF7B
:100BD000B60190E0DCD2F3CF043611F0093621F5EE
:100BE000530117FF09C0F4E0AF0EB11CF30160819F
:100BF0007181828193810AC0F2E0AF0EB11CF301D2
:100C000060817181072E000C880B990B1F7E97FF66
:100C100008C090958095709561957F4F8F4F9F4F3D
:100C200010642AE030E030C0003791F040F408351D
:100C3000A1F00F3609F052C028E030E011C00537AE
:100C400019F0083731F04AC01F7E2AE030E008C0B2
:100C50001061146220E130E003C0146020E132E052
:100C6000530117FF09C0F4E0AF0EB11CF30160811E
:100C700071818281938108C0F2E0AF0EB11CF30153
:100C80006081718180E090E0A401D6D2082F08191C
:100C900016FF04C0B6018DE290E079D214FF13C0B4
:100CA000FE01E00FF11D8081803369F0B60180E321
:100CB00090E06DD212FF07C01072812F90E0B60154
:100CC000885A9F4F64D20150F401E00FF11D8081DA
:100CD000B60190E05CD20111F6CF29CFF6018681F2
:100CE000978102C08FEF9FEF2B96EEE0E8C120FDC9
:100CF00009C0FC0123FD05C022FF02C0738362838B
:100D000051834083089544FD17C046FD17C0AB01D1
:100D1000BC01DA01FB01AA0FBB1FEE1FFF1F1094DD
:100D2000D1F74A0F5B1F6E1F7F1FCB01BA01660F01
:100D3000771F881F991F09C033E001C034E0660F98
:100D4000771F881F991F3150D1F7620F711D811DC8
:100D5000911D08950F931F93CF93DF938C01C801CA
:100D6000D8D1EC0197FD06C0C1D1892BC1F7B801DC
:100D7000CE0149D2CE01DF91CF911F910F910895FD
:100D80008F929F92AF92BF92EF92FF920F931F9319
:100D9000CF93DF938C01D62F7A01B22EBAD19C016A
:100DA00033272B32310531F02D32310559F48B2D9B
:100DB0008068B82ED15011F480E061C0C801A9D17B
:100DC00097FDFACFCB2DCD7F2B2D2073F9F48033F7
:100DD000E9F4AA24AA94AD0E09F43EC0C80199D141
:100DE00097FD3AC09C012F7D33272835310541F40A
:100DF000C264D25089F1C8018CD197FF07C02CC0C2
:100E0000B6FE02C0C26001C0C261DA2D812C912CF5
:100E1000540120ED280F283078F0C4FF03C0B8013A
:100E2000F2D117C02A3040F0C6FFF9CF2F7D3FEE38
:100E3000320F3630A0F727504C2FC501B40163DFC5
:100E40004B015C01C260D15051F0C80162D197FFE3
:100E5000E0CFC1FD04C0B0CF812C912C5401C7FF5D
:100E600008C0B094A09490948094811C911CA11C03
:100E7000B11C2C2FB501A401C70139DF81E0DF913E
:100E8000CF911F910F91FF90EF90BF90AF909F90E7
:100E90008F900895A0E0B0E0EFE4F7E0F3C06C01BC
:100EA000EB015A01FC0117821682512CF601F380E6
:100EB000FE01F3FC8591F3FE8191182FEF01882349
:100EC00009F4D4C090E012D1892B19F0C60142DF99
:100ED000EDCF153241F4FE01F3FC1591F3FE1191B3
:100EE000EF01153271F4C60114D197FDBDC0412F39
:100EF00050E09C01332724173507C1F2B60183D196
:100F0000B5C01A3239F4F3FC1591F3FE1191EF01DB
:100F100001E001C000E0E12C20ED210F2A3078F43F
:100F200002606E2D70E080E090E040E2ECDEE62EA4
:100F3000FE01F3FC1591F3FE1191EF01EDCF01FFDE
:100F400003C0E11003C092C0EE24EA94183619F0F1
:100F50001C3651F010C0FE01F3FC1591F3FE119107
:100F6000EF01183641F408600460FE01F3FC1591AE
:100F7000F3FE1191EF01112309F478C0612F70E0A5
:100F80008FE790E0BBD0892B09F470C000FD07C04B
:100F9000F50180809180C50102965C0102C0812C20
:100FA000912C1E3649F4F6014681578160E070E0CD
:100FB000202FC4019CDE7ACF1336A1F401FD02C0BC
:100FC000EE24E394C601A5D097FD4EC08114910490
:100FD00029F0F4018083C40101964C01EA94E110E8
:100FE000F1CF3EC0C601B6DE97FD3EC01F3649F1C7
:100FF00028F4143621F1193639F125C0133771F070
:101000001537E9F020C08114910429F0F4016082C1
:10101000C40101964C01EA94EE2059F0C60179D042
:101020003C0197FD06C062D0892B69F3B601C3016C
:10103000EAD081149104A1F0F401108211C0006281
:1010400003C0006101C00064202FA4016E2DC60101
:1010500097DE811105C0F6018381807329F406C0F3
:1010600000FD24CF539422CF552019F0852D90E018
:1010700002C08FEF9FEFCDB7DEB7EFE01FC02F921A
:101080003F924F925F926F927F928F929F92AF9218
:10109000BF92CF92DF92EF92FF920F931F93CF9365
:1010A000DF93CDB7DEB7CA1BDB0B0FB6F894DEBFFC
:1010B0000FBECDBF09942A88398848885F846E8422
:1010C0007D848C849B84AA84B984C884DF80EE806C
:1010D000FD800C811B81AA81B981CE0FD11D0FB675
:1010E000F894DEBF0FBECDBFED010895911102C18E
:1010F000803219F089508550D0F70895FC01059091
:10110000061621F00020D9F7C00108953197CF01CC
:101110000895CF93DF93EC012B8120FF33C026FF8E
:101120000AC02F7B2B838E819F8101969F838E83A4
:101130008A8190E029C022FF0FC0E881F981808177
:10114000082E000C990B009719F420622B831AC00B
:101150003196F983E8830EC0EA85FB85099597FFF0
:1011600009C02B81019611F080E201C080E1822B41
:101170008B8308C02E813F812F5F3F4F3F832E839B
:10118000992702C08FEF9FEFDF91CF9108950F93C2
:101190001F93CF93DF93FB01238121FD03C08FEFCA
:1011A0009FEF2CC022FF16C04681578124813581D4
:1011B0004217530744F4A081B1819D012F5F3F4F37
:1011C000318320838C93268137812F5F3F4F378374
:1011D000268314C08B01EC01FB010084F185E02D16
:1011E0000995892BE1F6D80116968D919C91179758
:1011F000019617969C938E931697CE01DF91CF910F
:101200001F910F910895FB01238120FF12C026FD3D
:1012100010C08F3F3FEF930761F082832F7D2064E2
:1012200023832681378121503109378326839927EB
:1012300008958FEF9FEF0895FA01AA27283051F102
:10124000203181F1E8946F936E7F6E5F7F4F8F4FF7
:101250009F4FAF4FB1E03ED0B4E03CD0670F781F56
:10126000891F9A1FA11D680F791F8A1F911DA11D3B
:101270006A0F711D811D911DA11D20D009F4689474
:101280003F912AE0269F11243019305D3193DEF61C
:10129000CF010895462F4770405D4193B3E00FD0D2
:1012A000C9F7F6CF462F4F70405D4A3318F0495DBD
:1012B00031FD4052419302D0A9F7EACFB4E0A695A0
:1012C0009795879577956795BA95C9F700976105C2
:1012D000710508959B01AC010A2E06945795479518
:1012E00037952795BA95C9F7620F731F841F951F0D
:0E12F000A01D0895992788270895F894FFCF30
:1012FE00FF20FF00FF0263300006014001AB0169D1
:10130E00646C65006D61696E002B403802021E042C
:10131E000507090D000F1000000000000000150267
:10132E00010001000000000000050007171B1D0052
:00000001FF
