:1000000044C000005FC000005DC000005BC0000095
:1000100059C0000057C0000055C0000053C0000088
:1000200051C000004FC000004DC000008EC3000052
:1000300049C0000047C0000045C0000043C00000A8
:1000400041C000003FC00000C8C3000004C400005D
:1000500039C0000037C0000035C0000033C00000C8
:1000600031C000002FC0000045464765666700208C
:100070002B2D2E3031323334353637383968006322
:1000800064696E6F70737578580011241FBECFEFCE
:10009000D8E0DEBFCDBF11E0A0E0B1E0E6EBFEE1CD
:1000A00002C005900D92A437B107D9F723E0A4E769
:1000B000B1E001C01D92AA38B207E1F70E941A0B05
:1000C0000C94590F9DCF32D384E191E030D3AED25E
:1000D00029D300C065C38091840090918500089564
:1000E000909389008093880082E086BB80936F00A4
:1000F000089510926F00089590938900809388006E
:100100000895AF92BF92CF92DF92EF92FF920F933A
:100110001F93CF93DF93EC016B018A018C819D814A
:100120008417950710F40C811D816C857D85E8840A
:10013000F984E61AF70A0E151F0598F1E016F10684
:10014000D0F0A801C6010E945C0E8E819F819D8720
:100150008C878C819D81801B910B9D838C83C80132
:10016000DF91CF911F910F91FF90EF90DF90CF9093
:10017000BF90AF900895A701C6010E945C0E580180
:10018000AE18BF086E817F81A501C6018E0D9F1D2F
:100190000E945C0E8E819F81A80EB91EBD86AC8622
:1001A000D8CFA801C6010E945C0E8C859D85800F6A
:1001B000911F9D878C87CDCFAF92BF92CF92DF9258
:1001C000EF92FF920F931F93CF93DF93EC016B019C
:1001D0008A018C819D818417950710F40C811D8103
:1001E0008A859B85E884F984E81AF90A0E151F05AB
:1001F00098F1E016F106D0F0A801B6010E945C0E5D
:100200008E819F819B878A878C819D81801B910B2A
:100210009D838C83C801DF91CF911F910F91FF9037
:10022000EF90DF90CF90BF90AF900895A701B601F7
:100230000E945C0E5801AE18BF08B6016E0D7F1DFE
:10024000A5018E819F810E945C0E8E819F81A80EE8
:10025000B91EBB86AA86D8CFA801B6010E945C0E43
:100260008A859B85800F911F9B878A87CDCFAF9210
:10027000BF92CF92DF92EF92FF920F931F93CF9393
:10028000DF93EC017B016A0159010E94FF091D8285
:100290001C82FF82EE82FD86EC86FB86EA86EC0CF1
:1002A000FD1CF986E886BF86AE86198B088BDF9128
:1002B000CF911F910F91FF90EF90DF90CF90BF9063
:1002C000AF900895FC01A285B38584859585A81714
:1002D000B907E9F084819581019695838483CD01E6
:1002E0000196938782876C932285338580859185DB
:1002F0002817390720F08681978193878287CF015D
:1003000060E070E00E94220A80E090E0089584811D
:100310009581892BF9F28FEF9FEF08950F931F932B
:10032000CF93DF93EC018B01F89406C0B801CE01A6
:100330000E94050A97FD27C08C819D81892BB1F30E
:100340008C819D8101979D838C83EC85FD85CF01F8
:1003500001969D878C8710812885398582179307A0
:1003600020F08E819F819D878C87EE85FF85309759
:1003700011F0CE0109957894812F90E0DF91CF9113
:100380001F910F9108957894DF91CF911F910F9154
:1003900008956F927F928F929F92AF92BF92CF9269
:1003A000DF92EF92FF920F931F93CF93DF936C0135
:1003B0007B013A014901FC01A684B784F8944115F8
:1003C0005105B9F08A01A801B701C6019ADEEC0116
:1003D000892B21F1A114B10419F0C601F501099589
:1003E00078940C1B1D0BEC0EFD1EF89401151105E5
:1003F00051F700E010E07894C301801B910BDF916E
:10040000CF911F910F91FF90EF90DF90CF90BF9011
:10041000AF909F908F907F906F900895B401C60128
:10042000F4D7892B81F2E7CFAF92BF92CF92DF92C0
:10043000EF92FF920F931F93CF93DF93EC015B0139
:100440007A016901DCD7FD82EC82BF82AE82BD8673
:10045000AC86BB86AA86EA0CFB1CF986E886DF869A
:10046000CE86198B088BDF91CF911F910F91FF9052
:10047000EF90DF90CF90BF90AF900895FF920F93D1
:100480001F93CF93DF93EC01F62E8A01F89405C0F9
:10049000B801CE01BAD797FD2AC08C819D81892BE6
:1004A000B9F38C819D8101979D838C83EA85FB85BF
:1004B000CF0101969B878A87F0822A853B858885B4
:1004C00099852817390720F08E819F819B878A871D
:1004D000EE85FF85309711F0CE010995789480E084
:1004E00090E0DF91CF911F910F91FF900895789444
:1004F000DF91CF911F910F91FF900895CF93FC0151
:10050000A485B585828593858A179B07E1F0848150
:100510009581019695838483CD0101969587848783
:10052000CC91208531858217930740F4CF0160E09C
:1005300070E088D78C2F90E0CF91089586819781C5
:1005400095878487F3CF84819581892B01F38FEF81
:100550009FEFF2CF6F927F928F929F92AF92BF9256
:10056000CF92DF92EF92FF920F931F93CF93DF937F
:100570006C017B013A014901FC01A684B784F8941F
:1005800041155105B9F08A01A801B701C60114DE71
:10059000EC01892B21F1A114B10419F0C601F50178
:1005A000099578940C1B1D0BEC0EFD1EF89401159B
:1005B000110551F700E010E07894C301801B910B06
:1005C000DF91CF911F910F91FF90EF90DF90CF902F
:1005D000BF90AF909F908F907F906F900895B401DF
:1005E000C60113D7892B81F2E7CF0596D2CE2FEF24
:1005F0003FEF0596CECE4796ADCF2FEF3FEF479614
:10060000A9CF05968BCE6FEF7FEF059687CE4796E5
:1006100035CF4FEF5FEF479631CF6130710519F05D
:100620008CEE9FEF089580E090E008954BC1CF924B
:10063000DF92EF92FF920F931F93CF93DF93EC0122
:100640006B017A0120E031E0FC0121933193CF016D
:100650001AD781E08C83BE01675D7F4F8E019601C2
:1006600040E150E0CE01059602DEBE01675C7F4F9F
:10067000970140E150E0CE014796D6DEDF91CF9161
:100680001F910F91FF90EF90DF90CF900895CF933F
:10069000DF93EC01F8941DD182E08C83789480E0A4
:1006A00090E0DF91CF9108951F93CF93DF93EC01FA
:1006B000162F89859A85892B51F0612FCE010596D9
:1006C00001DE97FD0EC0DF91CF911F91089564E088
:1006D000CE010296F2D6612FCE010596F3DD97FF8B
:1006E000F2CF60E0CE010296DF91CF911F91E5C677
:1006F0000F931F93CF93DF938C014796FFDEEC019E
:1007000097FD06C0CE01DF91CF911F910F91089503
:1007100068E0C8010296D1D6CE01DF91CF911F913A
:100720000F910895109269001DBA08950895FC0173
:10073000808185B9818184B9828188B9838187B9B3
:1007400084818BB985818AB908951F920F920FB663
:100750000F9211242F933F934F935F936F937F9347
:100760008F939F93AF93BF93EF93FF9381E0809319
:100770008903F5D01092890360D481116ED4FF9162
:10078000EF91BF91AF919F918F917F916F915F9109
:100790004F913F912F910F900FBE0F901F90189582
:1007A00010928000E1E8F0E088E0808310928200FF
:1007B0001092890010928800109285001092840097
:1007C00082E086BB10926F0085E080830895E1ECA3
:1007D000F0E080818062808308951F920F920FB6AF
:1007E0000F9211242F933F934F935F936F937F93B7
:1007F0008F939F93AF93BF93EF93FF9381E0809389
:1008000089038091C000982F9C7141F082FD21C026
:1008100060E084FD606486EF92E04FD66091C60090
:1008200084EF92E041DF1092890307D4811115D43F
:10083000FF91EF91BF91AF919F918F917F916F91B8
:100840005F914F913F912F910F900FBE0F901F908E
:10085000189560E2DECF1F920F920FB60F9211240F
:100860002F933F934F935F936F937F938F939F93B8
:10087000AF93BF93EF93FF9381E08093890384EF5D
:1008800092E036DF97FD18C08093C600109289036E
:10089000D4D38111E2D3FF91EF91BF91AF919F919A
:1008A0008F917F916F915F914F913F912F910F9019
:1008B0000FBE0F901F9018958091C1008F7D80937F
:1008C000C100E4CF47EE53E060E070E084EF92E0D7
:1008D000AECE6115710519F1845F924009F008955B
:1008E000FB0180818093C40081818F708093C5005B
:1008F00082E08093C00088E98093C10082818130CA
:10090000B9F0A0F0823071F0843071F48091C100B0
:1009100084608093C10086E08093C20008956AE1FC
:1009200071E0DACF84E0F8CF86E0F6CF80E0F4CF54
:1009300082E0F2CFCF93DF93CDE3D3E081E08883F1
:100940001A821982DFD51FD660E271E080E493E05D
:10095000C4D382E088837894DF91CF91089591C1C8
:100960000F931F93E0E4F3E0078D10A121A132A1C2
:10097000DC01CB01802B912BA22BB32B878F90A373
:10098000A1A3B2A31F910F910895CF92DF92EF928E
:10099000FF920F931F93CF93DF93FC018B01709312
:1009A0004E0360934D034483558387E493E0938320
:1009B0008283A0914703B0914803B183A08313962B
:1009C000FC93EE931297F0934803E0934703C09093
:1009D0004F03D0905003EA014C155D0508F4E60181
:1009E000C8018C0F9D1F7CDB08C0E6012196C80161
:1009F0008C0F9D1F81DB6E0187016DDB7C01801BED
:100A0000910B8C179D0788F780914F0390915003AD
:100A10008C159D0548F0DF91CF911F910F91FF90AC
:100A2000EF90DF90CF900895D0925003C0924F0383
:100A300061E070E080E090E0DF91CF911F910F9135
:100A4000FF90EF90DF90CF908BCFEF92FF920F93BC
:100A50001F93CF93DF938C01E0904F03F0905003EE
:100A6000E701E616F70630F4EB0104C0E701219632
:100A70008C017E01C8018C0F9D1F3EDB2CDB9C018D
:100A8000201B310B2C173D0788F780914F03909165
:100A900050038E159F0538F0DF91CF911F910F9174
:100AA000FF90EF900895F0925003E0924F0361E0C1
:100AB00070E080E090E0DF91CF911F910F91FF9067
:100AC000EF904ECFEF92FF920F931F93CF93DF9350
:100AD0008C017B0100DBE0914703F091480323E0A8
:100AE000E734F20709F454C020914D0330914E03CE
:100AF000AC01421B530BE701C40FD51FC417D50728
:100B0000C0F124813581C217D307C8F12C173D07E6
:100B100050F4C21BD30B0190F081E02D248135816C
:100B20002C173D07B0F3D8011596DC93CE9314979C
:100B30001196FC93EE938281938113969C938E93EE
:100B40001297DC010D931C9313830283848195819A
:100B50008C1B9D0B958384838FEF9FEF90934C03A9
:100B600080934B03DF91CF911F910F91FF90EF90F6
:100B70000895E70124813581C217D30738F6B701FC
:100B800064DFE0914703F091480324813581BECFB3
:100B9000A701BC01C801DF91CF911F910F91FF9078
:100BA000EF90F3CEFC01318720875783468313866D
:100BB000128688CFCF93DF93FC01809147039091F9
:100BC0004803E817F90719F1C281D3818081918127
:100BD00099838883A081B1811396DC93CE93129779
:100BE00014962D913C91159784819581820F931FC6
:100BF00015969C938E931497118210828FEF9FEF1E
:100C000090934C0380934B03DF91CF910895A08183
:100C1000B181B0934803A093470387E493E0139610
:100C20009C938E93129711821082A0914703B091EA
:100C30004803A817B90711F114962D913C91159707
:100C400084819581820F931F15969C938E931497A0
:100C500042DA20914D0330914E03AC01421B530BFD
:100C6000E0914703F0914803648175814617570767
:100C700058F6641B750BDF91CF91E7CEDF91CF91D2
:100C800038CACF92DF92EF92FF920F931F93CF93C8
:100C9000DF93EE24EA94FE2C0BC068857985EE8103
:100CA000FF81CE0109958A859B85892B09F048C073
:100CB000C0914703D09148030EDA00914D03109183
:100CC0004E03AC01401B510B2C813D814217530751
:100CD000E8F0020F131F10934E0300934D03EA81B7
:100CE000FB818881998191838083A881B981139642
:100CF000FC93EE931297198218828091470390918A
:100D000048038754934049F6F4D9C7CF609147030D
:100D1000709148036754734009F45FC090934E0389
:100D200080934D03B901641B750B7D836C83DF9148
:100D3000CF911F910F91FF90EF90DF90CF9085CED4
:100D4000CAD96C01AC01401B510B8A018A859B8575
:100D50008417950798F1AC01401B510BE0914703B4
:100D6000F091480323E0E734F20709F441C02481FD
:100D700035812817390750F4821B930B0190F081BD
:100D8000E02D2481358128173907B0F39D838C83AA
:100D9000F983E883A281B381BB83AA83CD93DC93DB
:100DA000D383C28324813581A901481B590B558304
:100DB0004483F0924C03E0924B037ACF62E070E000
:100DC00080E090E0CDDDE0914703F091480353E0EF
:100DD000E734F50759F0C801CACFDF91CF911F91D1
:100DE0000F91FF90EF90DF90CF90089540E050E09A
:100DF000B601CE01DF91CF911F910F91FF90EF903F
:100E0000DF90CF90C2CDCF93DF93DB011F968C9103
:100E10001F978430F1F180F5882359F1833031F444
:100E20005296ED91FC915397118210828FEF9FEFB4
:100E300053969C938E9352971F961C921F971B96C6
:100E4000ED91FC911C9714969C9114970190F08160
:100E5000E02D84818917D0F71196FC93EE93C2811F
:100E6000D3811396DC93CE931297B983A883B3836F
:100E7000A283DF91CF910895873059F08C3049F0EB
:100E80008530A1F65296ED91FC91539784818F5F46
:100E900084831296ED91FC9113978D919C911197FB
:100EA00091838083CD91DC911197FB83EA83BECF40
:100EB000CF93DF93DC011F961C921F971B96ED9139
:100EC000FC911C9714962C9114970190F081E02DC1
:100ED00094819217D0F71196FC93EE93C281D3813F
:100EE0001396DC93CE931297B983A883B383A2831E
:100EF000CD01DF91CF910895CF93DF93E0E4F3E04C
:100F000065817681DB011F968C9380819181EC0154
:100F1000A881B981B183A0831396FC93EE931297B5
:100F200021E02F879683858342D3DF91CF91089567
:100F3000FF920F931F93CF93DF93CDB7DEB72C971C
:100F40000FB6F894DEBF0FBECDBFF82E009145035B
:100F5000109146036F3F8FEF7807F1F0980143E05F
:100F600057E0CE0101961EDE8F2DC6DF89819A8162
:100F7000892B19F0CE0101961DDEF8018289938933
:100F80002C960FB6F894DEBF0FBECDBFDF91CF9188
:100F90001F910F91FF9008958F2DAEDFEECFCF936D
:100FA000DF93DC01C0914503D091460353967C93B7
:100FB0006E93529714962C9114978C818217E8F0B7
:100FC0001F961C921F971B96ED91FC911C97019008
:100FD000F081E02D94819217D0F71196FC93EE9357
:100FE000C281D3811396DC93CE931297B983A883E1
:100FF000B383A283DF91CF9108951F86EB85FC8593
:101000000190F081E02D94818917D0F3CD01F9830F
:10101000E883A281B381BB83AA83CD93DC93D3837E
:10102000C28321E0FC012787909346038093450308
:10103000BE01BDD2DF91CF910895A0914003B09140
:101040004103E0914503F091460381E014962C9111
:101050009481921708F080E00895CF93DF93A091D8
:101060004503B09146034091400350914103EA018A
:10107000E881F981F0934103E093400380E493E039
:101080009383828381E08F87509346034093450387
:101090001F961C921F971B96ED91FC911C9714961E
:1010A0002C9114970190F081E02D94812917D0F3B1
:1010B0001196FC93EE938281938113969C938E9369
:1010C0001297EC01B983A883B383A283BD01CA013F
:1010D0006ED2DF91CF910895FFCFCF92DF92FF9232
:1010E0000F931F93CF93DF93CDB7DEB72B970FB638
:1010F000F894DEBF0FBECDBF8C016B0190933F0310
:1011000080933E03FC01168E158E74A363A3FF2407
:10111000F394F09289039183808393838283148272
:101120004996928F818F948F838F178E10A211A270
:1011300012A2429790878783928781878FEF9FEFD4
:10114000948783871686158682E090E0908B878748
:101150000E946B009C01F801218B328B138A148A48
:10116000158A168A178A108EED5BFF4F1182108246
:10117000B8016B5D7F4F20E842E351E0C8012AD0FF
:10118000F80196838583FC01F78686E291E09A83D5
:101190008983F601828193819C838B8384819581ED
:1011A0009E838D83FF828CE698E0998788871B86D3
:1011B0001A86CE0101969ED02B960FB6F894DEBF0C
:1011C0000FBECDBFDF91CF911F910F91FF90DF90A8
:1011D000CF900895CF93DF93FB01248332E03787CC
:1011E000108A94878387258F148E138E128E21E0A8
:1011F000218B568745879B01295F3F4FAC01475E96
:101200005F4F50874783EC01AB8DBC8DB287A187C0
:101210002D933C933C8F2B8FCB014496958B848BE5
:101220000296978B868B918F808FCB01DF91CF9128
:101230000895CF93DF93DC0114962D913C9115977F
:10124000F9017E97E901E397D683C58317968C91C0
:1012500017978A8B18968C911897898B19968C9171
:101260001997888B1A968C911A978F8786E09BE046
:101270009B8B8C8B16968C9116974D915C918483E9
:1012800092E09787108A60E473E074876387858FA4
:10129000148E138E128E81E0818B56874587D9017B
:1012A000579789E593E011969C938E93EB018B8D74
:1012B0009C8D13969C938E931297EC01B983A8830F
:1012C000EB01BC8FAB8F1D960B2E11960C921197D4
:1012D000AC9312960B2E11960C921197AC930A2E8A
:1012E0001B2E13961C920E9211241297CF01DF91A0
:1012F000CF9108959EDFDCCD0F931F93CF93DF93A3
:10130000F8946E517109EC01C60FD71FFE01759755
:10131000FE83ED83228B318B008B178786E09BE069
:10132000938B848B4C8382E08F87188AE0E4F3E010
:10133000FC87EB874D8F1C8E1B8E1A8E81E0898B6C
:101340008BE291E09E878D87CE01079629E533E0F9
:1013500038872F83A38DB48DBA87A9878D939C93EB
:10136000948F838F0D969D8B8C8B02969F8B8E8B8B
:10137000998F888F60E070E0CE0111DE7894CE0105
:10138000DF91CF911F910F9108950F931F93CF93EA
:10139000DF93C0914503D09146039B8B8A8B8E01CE
:1013A0000C5E1F4F8C899D890817190759F0FC01A5
:1013B000208131813D8B2C8B7BDD8C899D89801731
:1013C0009107A9F7898981110CC0E985FA858F8178
:1013D000988591838083AF81B8851396FC93EE93B3
:1013E00012978FE0DF91CF911F910F9185CDF894E7
:1013F000CCCFF894BC0188E09BDD78940895FC0183
:1014000091838083938382830895CF93DF93E091C8
:101410004503F09146036115710579F0918380834E
:10142000EC01AA81BB81B383A283ED93FC93FB8380
:10143000EA8384E0DF91CF917BCD8FEF9FEFDF9147
:10144000CF910895CF93DF93FC0180819181E817BC
:10145000F90771F0EC01A881B981B183A0831396DB
:10146000FC93EE9312977B8B6A8BDF91CF9120CD0B
:10147000DF91CF910895FC019183808393838283D0
:10148000158214820895FC01918380830895FC01E4
:10149000928D692B628F87858A3059F08B3009F0E5
:1014A0000895828968238613FBCF138A128ACF019D
:1014B000FFCC82896823C9F70895EF92FF921F93AA
:1014C000CF93DF937C01162FFC01C081D1818C1753
:1014D0009D0791F08D81812B8D83112319F08E81D1
:1014E000812321F06C818A819B81D1DF0990D88191
:1014F000C02DEC16FD0671F7DF91CF911F91FF9083
:10150000EF900895E5E8F3E08FED91E0918380831B
:101510008FE592E0938382830895F8942091870366
:1015200030918803F901E81BF90B719561957109F8
:101530006E237F23CB01841B950B40918503509133
:1015400086038417950750F02817390738F09093D1
:10155000880380938703CB017894089580E090E01E
:1015600078940895E5E8F3E040815181DC0111961B
:101570005C934E9322813381241B350B13963C934D
:101580002E9312970895CF93DF93CFE5D2E08DE8A5
:101590009AE09983888381E692E0E4DF1F821E82CD
:1015A0001986188689E692E0DF91CF9164CF2F9259
:1015B0003F924F925F926F927F928F929F92AF92E3
:1015C000BF92CF92DF92EF92FF920F931F93CF9330
:1015D000DF93FB010DB605820EB60682FC01058085
:1015E0000DBE06800EBEDF91CF911F910F91FF902F
:1015F000EF90DF90CF90BF90AF909F908F907F90B3
:101600006F905F904F903F902F9008957894C20113
:10161000F1010995ECCEE0914503F09146038DE58B
:1016200091E0968785878BB180588BB988E09DE3E0
:10163000E0DEF9CF0E9463007DD960E070E084EFC6
:1016400092E025D800E010E02BE03BE040E863E8C2
:1016500070E081E792E050DEE091F402F091F50253
:101660000280F381E02D4EE050E065E671E084EF0A
:1016700092E0099588E09DE3BCDEFCCFABE0B0E0F2
:10168000E3E4FBE0D3C26C017B013A01FC01178269
:101690001682838181FFF9C0CE0101964C01F601CB
:1016A000B380F701B3FC0591B3FE01917F010023E4
:1016B00009F4E7C0053249F4B3FC0591B3FE01918A
:1016C0007F01053211F010E017C0B601802F90E0C5
:1016D0003AD353013501E3CF002309F4D2C0602F80
:1016E00070E08FE690E0DDD2892B49F0F701B3FC82
:1016F0000591B3FE01917F0117FFEECF04C00332C5
:1017000039F00C3619F0011105C0BBC01068EECFDE
:1017100010E1ECCF602F70E088E690E0C2D2892B18
:1017200041F05301F4E0AF0EB11CB6018FE390E03D
:1017300010C0033631F0033771F0033501F5116045
:101740000AC0530182E0A80EB11CB601F3018081EA
:101750009181F9D2BFCF5301F2E0AF0EB11CF3017A
:1017600060807180F30110FD859110FF81913F0130
:10177000882309F4AFCFB60190E0E5D2F3CF043669
:1017800011F0093621F5530117FF09C0F4E0AF0E3F
:10179000B11CF30160817181828193810AC0F2E002
:1017A000AF0EB11CF30160817181072E000C880B14
:1017B000990B1F7E97FF08C0909580957095619555
:1017C0007F4F8F4F9F4F10642AE030E030C00037CA
:1017D00091F040F40835A1F00F3609F052C028E02E
:1017E00030E011C0053719F0083731F04AC01F7ECC
:1017F0002AE030E008C01061146220E130E003C04C
:10180000146020E132E0530117FF09C0F4E0AF0E8D
:10181000B11CF301608171818281938108C0F2E083
:10182000AF0EB11CF3016081718180E090E0A401F2
:10183000DFD2082F081916FF04C0B6018DE290E030
:1018400082D214FF13C0FE01E00FF11D80818033AE
:1018500069F0B60180E390E076D212FF07C0107203
:10186000812F90E0B601885A9F4F6DD20150F4014C
:10187000E00FF11D8081B60190E065D20111F6CF35
:1018800029CFF6018681978102C08FEF9FEF2B96BB
:10189000EEE0E8C120FD09C0FC0123FD05C022FFE8
:1018A00002C07383628351834083089544FD17C04F
:1018B00046FD17C0AB01BC01DA01FB01AA0FBB1F3B
:1018C000EE1FFF1F1094D1F74A0F5B1F6E1F7F1F83
:1018D000CB01BA01660F771F881F991F09C033E03B
:1018E00001C034E0660F771F881F991F3150D1F770
:1018F000620F711D811D911D08950F931F93CF934A
:10190000DF938C01C801E1D1EC0197FD06C0C1D184
:10191000892BC1F7B801CE0152D2CE01DF91CF9110
:101920001F910F9108958F929F92AF92BF92EF9265
:10193000FF920F931F93CF93DF938C01D62F7A01E1
:10194000B22EC3D19C0133272B32310531F02D3219
:10195000310559F48B2D8068B82ED15011F480E0F8
:1019600061C0C801B2D197FDFACFCB2DCD7F2B2D11
:101970002073F9F48033E9F4AA24AA94AD0E09F493
:101980003EC0C801A2D197FD3AC09C012F7D3327EC
:101990002835310541F4C264D25089F1C80195D18E
:1019A00097FF07C02CC0B6FE02C0C26001C0C26172
:1019B000DA2D812C912C540120ED280F283078F05D
:1019C000C4FF03C0B801FBD117C02A3040F0C6FFE6
:1019D000F9CF2F7D3FEE320F3630A0F727504C2F36
:1019E000C501B40163DF4B015C01C260D15051F00D
:1019F000C8016BD197FFE0CFC1FD04C0B0CF812CEF
:101A0000912C5401C7FF08C0B094A0949094809486
:101A1000811C911CA11CB11C2C2FB501A401C70174
:101A200039DF81E0DF91CF911F910F91FF90EF900F
:101A3000BF90AF909F908F900895A0E0B0E0E2E259
:101A4000FDE0F3C06C01EB015A01FC011782168224
:101A5000512CF601F380FE01F3FC8591F3FE819198
:101A6000182FEF01882309F4D4C090E012D1892BFC
:101A700019F0C60142DFEDCF153241F4FE01F3FC4F
:101A80001591F3FE1191EF01153271F4C6011DD1CC
:101A900097FDBDC0412F50E09C0133272417350727
:101AA000C1F2B6018CD1B5C01A3239F4F3FC1591EC
:101AB000F3FE1191EF0101E001C000E0E12C20ED07
:101AC000210F2A3078F402606E2D70E080E090E003
:101AD00040E2ECDEE62EFE01F3FC1591F3FE1191DF
:101AE000EF01EDCF01FF03C0E11003C092C0EE246F
:101AF000EA94183619F01C3651F010C0FE01F3FCC0
:101B00001591F3FE1191EF01183641F4086004605D
:101B1000FE01F3FC1591F3FE1191EF01112309F47D
:101B200078C0612F70E08FE790E0BBD0892B09F47B
:101B300070C000FD07C0F50180809180C50102964C
:101B40005C0102C0812C912C1E3649F4F6014681BD
:101B5000578160E070E0202FC4019CDE7ACF1336FD
:101B6000A1F401FD02C0EE24E394C601AED097FDBE
:101B70004EC08114910429F0F4018083C4010196C0
:101B80004C01EA94E110F1CF3EC0C601B6DE97FDEC
:101B90003EC01F3649F128F4143621F1193639F1C7
:101BA00025C0133771F01537E9F020C08114910476
:101BB00029F0F4016082C40101964C01EA94EE2000
:101BC00059F0C60182D03C0197FD06C062D0892B36
:101BD00069F3B601C301F3D081149104A1F0F401BB
:101BE000108211C0006203C0006101C00064202F98
:101BF000A4016E2DC60197DE811105C0F601838117
:101C0000807329F406C000FD24CF539422CF5520C1
:101C100019F0852D90E002C08FEF9FEFCDB7DEB7B2
:101C2000EFE01FC02F923F924F925F926F927F9290
:101C30008F929F92AF92BF92CF92DF92EF92FF92DC
:101C40000F931F93CF93DF93CDB7DEB7CA1BDB0B88
:101C50000FB6F894DEBF0FBECDBF09942A8839882D
:101C600048885F846E847D848C849B84AA84B98434
:101C7000C884DF80EE80FD800C811B81AA81B98140
:101C8000CE0FD11D0FB6F894DEBF0FBECDBFED0154
:101C9000089591110BC1803219F089508550D0F709
:101CA0000895FC010590061621F00020D9F7C00127
:101CB00008953197CF010895FB01DC0102C0019026
:101CC0000D9241505040D8F70895CF93DF93EC0127
:101CD0002B8120FF33C026FF0AC02F7B2B838E81F0
:101CE0009F8101969F838E838A8190E029C022FF85
:101CF0000FC0E881F9818081082E000C990B0097B4
:101D000019F420622B831AC03196F983E8830EC040
:101D1000EA85FB85099597FF09C02B81019611F093
:101D200080E201C080E1822B8B8308C02E813F813D
:101D30002F5F3F4F3F832E83992702C08FEF9FEF86
:101D4000DF91CF9108950F931F93CF93DF93FB0102
:101D5000238121FD03C08FEF9FEF2CC022FF16C00F
:101D600046815781248135814217530744F4A0816D
:101D7000B1819D012F5F3F4F318320838C9326815A
:101D800037812F5F3F4F3783268314C08B01EC01CF
:101D9000FB010084F185E02D0995892BE1F6D8013E
:101DA00016968D919C911797019617969C938E93FA
:101DB0001697CE01DF91CF911F910F910895FB01EE
:101DC000238120FF12C026FD10C08F3F3FEF9307F5
:101DD00061F082832F7D2064238326813781215007
:101DE000310937832683992708958FEF9FEF089550
:101DF000FA01AA27283051F1203181F1E8946F933C
:101E00006E7F6E5F7F4F8F4F9F4FAF4FB1E03ED0E1
:101E1000B4E03CD0670F781F891F9A1FA11D680F7F
:101E2000791F8A1F911DA11D6A0F711D811D911DB2
:101E3000A11D20D009F468943F912AE0269F112427
:101E40003019305D3193DEF6CF010895462F47708B
:101E5000405D4193B3E00FD0C9F7F6CF462F4F70E6
:101E6000405D4A3318F0495D31FD4052419302D044
:101E7000A9F7EACFB4E0A6959795879577956795EA
:101E8000BA95C9F700976105710508959B01AC01EA
:101E90000A2E06945795479537952795BA95C9F711
:101EA000620F731F841F951FA01D0895992788270F
:061EB0000895F894FFCF35
:101EB6000000FD02F7020903030307030103FB0207
:101EC600F5020D03FF20FF00FF023300036330001D
:101ED6001D017401DF0169646C65006E6F6E616DD2
:101EE60065006D61696E002B403802021E0405070D
:101EF600090D000F1000000000000000150201008F
:101F060001000000000000050007191D1F426C6952
:101F16006E6B65720048656C6C6F20576F726C64EF
:041F2600210D0A007F
:00000001FF
