:1000000044C000005FC000005DC000005BC0000095
:1000100059C0000057C0000055C0000053C0000088
:1000200051C000004FC000004DC0000003C40000DC
:1000300035C40000CBC3000094C3000043C00000DF
:1000400041C000003FC00000B8C50000F4C500007A
:1000500039C0000037C0000035C0000033C00000C8
:1000600031C000002FC0000045464765666700208C
:100070002B2D2E3031323334353637383968006322
:1000800064696E6F70737578580011241FBECFEFCE
:10009000D8E0DEBFCDBF11E0A0E0B1E0E8E1FEE1D5
:1000A00002C005900D92AC37B107D9F723E0ACE759
:1000B000B1E001C01D92A431B207E1F70E94B10A7C
:1000C0000C940A0F9DCF3ED387E291E03CD378D2C7
:1000D000C6D234D300C070C3AF92BF92CF92DF922A
:1000E000EF92FF920F931F93CF93DF93EC016B017D
:1000F0008A018C819D818417950710F40C811D81E4
:100100006C857D85E884F984E61AF70A0E151F05CB
:1001100098F1E016F106D0F0A801C6010E940D0E7C
:100120008E819F819D878C878C819D81801B910B07
:100130009D838C83C801DF91CF911F910F91FF9018
:10014000EF90DF90CF90BF90AF900895A701C601C8
:100150000E940D0E5801AE18BF086E817F81A50167
:10016000C6018E0D9F1D0E940D0E8E819F81A80ECF
:10017000B91EBD86AC86D8CFA801C6010E940D0E5F
:100180008C859D85800F911F9D878C87CDCFAF92E9
:10019000BF92CF92DF92EF92FF920F931F93CF9374
:1001A000DF93EC016B018A018C819D818417950797
:1001B00010F40C811D818A859B85E884F984E81AF6
:1001C000F90A0E151F0598F1E016F106D0F0A80106
:1001D000B6010E940D0E8E819F819B878A878C813C
:1001E0009D81801B910B9D838C83C801DF91CF91F2
:1001F0001F910F91FF90EF90DF90CF90BF90AF9045
:100200000895A701B6010E940D0E5801AE18BF084F
:10021000B6016E0D7F1DA5018E819F810E940D0E7E
:100220008E819F81A80EB91EBB86AA86D8CFA80151
:10023000B6010E940D0E8A859B85800F911F9B87BA
:100240008A87CDCFAF92BF92CF92DF92EF92FF928B
:100250000F931F93CF93DF93EC017B016A01590148
:100260000E94A5091D821C82FF82EE82FD86EC861B
:10027000FB86EA86EC0CFD1CF986E886BF86AE8616
:10028000198B088BDF91CF911F910F91FF90EF9009
:10029000DF90CF90BF90AF900895FC01A285B38509
:1002A00084859585A817B907E9F084819581019621
:1002B00095838483CD010196938782876C932285F1
:1002C0003385808591852817390720F086819781AD
:1002D00093878287CF0160E070E00E94C80980E0C8
:1002E00090E0089584819581892BF9F28FEF9FEF3B
:1002F00008950F931F93CF93DF93EC018B01F89434
:1003000006C0B801CE010E94AB0997FD27C08C81C1
:100310009D81892BB1F38C819D8101979D838C8375
:10032000EC85FD85CF0101969D878C8710812885FE
:1003300039858217930720F08E819F819D878C8756
:10034000EE85FF85309711F0CE0109957894812FC5
:1003500090E0DF91CF911F910F9108957894DF91F4
:10036000CF911F910F9108956F927F928F929F92DC
:10037000AF92BF92CF92DF92EF92FF920F931F93B3
:10038000CF93DF936C017B013A014901FC01A68404
:10039000B784F89441155105B9F08A01A801B70155
:1003A000C6019ADEEC01892B21F1A114B10419F0E8
:1003B000C601F501099578940C1B1D0BEC0EFD1E72
:1003C000F8940115110551F700E010E07894C3018D
:1003D000801B910BDF91CF911F910F91FF90EF90B8
:1003E000DF90CF90BF90AF909F908F907F906F9055
:1003F0000895B401C601AFD7892B81F2E7CFAF9240
:10040000BF92CF92DF92EF92FF920F931F93CF9301
:10041000DF93EC015B017A01690197D7FD82EC82E1
:10042000BF82AE82BD86AC86BB86AA86EA0CFB1C68
:10043000F986E886DF86CE86198B088BDF91CF910F
:100440001F910F91FF90EF90DF90CF90BF90AF90F2
:100450000895FF920F931F93CF93DF93EC01F62E35
:100460008A01F89405C0B801CE0175D797FD2AC05E
:100470008C819D81892BB9F38C819D8101979D830E
:100480008C83EA85FB85CF0101969B878A87F08262
:100490002A853B85888599852817390720F08E8124
:1004A0009F819B878A87EE85FF85309711F0CE016B
:1004B0000995789480E090E0DF91CF911F910F91A2
:1004C000FF9008957894DF91CF911F910F91FF9045
:1004D0000895CF93FC01A485B585828593858A17FD
:1004E0009B07E1F084819581019695838483CD01FA
:1004F000019695878487CC91208531858217930753
:1005000040F4CF0160E070E043D78C2F90E0CF91B2
:1005100008958681978195878487F3CF848195811B
:10052000892B01F38FEF9FEFF2CF6F927F928F9223
:100530009F92AF92BF92CF92DF92EF92FF920F9372
:100540001F93CF93DF936C017B013A014901FC01BA
:10055000A684B784F89441155105B9F08A01A80121
:10056000B701C60114DEEC01892B21F1A114B104FD
:1005700019F0C601F501099578940C1B1D0BEC0EC2
:10058000FD1EF8940115110551F700E010E0789474
:10059000C301801B910BDF91CF911F910F91FF90B1
:1005A000EF90DF90CF90BF90AF909F908F907F9013
:1005B0006F900895B401C601CED6892B81F2E7CFA2
:1005C000A1C1FC0181E08083128211821582168212
:1005D0000895CF93DF93EC01F8947A836983FB014C
:1005E000848195819C838B831D82CE0192D182E090
:1005F0008883789480E090E0DF91CF910895F8941B
:1006000021E030E0062E01C0220F0A94EAF7FC0137
:100610003581232B258303D2789408950596A4CEA3
:100620002FEF3FEF0596A0CE47967FCF2FEF3FEFFE
:1006300047967BCF05965DCE6FEF7FEF059659CE3F
:10064000479607CF4FEF5FEF479603CF61307105B5
:1006500019F08CEE9FEF089580E090E0089522C39A
:10066000CF92DF92EF92FF920F931F93CF93DF937E
:10067000EC016B017A0123E131E0FC01219331931C
:10068000CF01A7D681E08C83BE01675D7F4F8E01CD
:10069000960140E150E0CE010596D4DDBE01675CD5
:1006A0007F4F970140E150E0CE014796A8DEDF91F1
:1006B000CF911F910F91FF90EF90DF90CF90089511
:1006C0001F93CF93DF93EC01162F89859A85892B91
:1006D00051F0612FCE010596E0DD97FD0EC0DF9150
:1006E000CF911F91089564E0CE0102968CD6612FC0
:1006F000CE010596D2DD97FFF2CF60E0CE010296E3
:10070000DF91CF911F917FC60F931F93CF93DF93FC
:100710008C014796DEDEEC0197FD06C0CE01DF912D
:10072000CF911F910F91089568E0C80102966BD692
:10073000CE01DF91CF911F910F9108951092690022
:100740001DBA08950895FC01808185B9818184B91D
:10075000828188B9838187B984818BB985818AB97F
:1007600008951F920F920FB60F9211242F933F936B
:100770004F935F936F937F938F939F93AF93BF93A9
:10078000EF93FF9381E080931303A8D21092130399
:1007900047D4811155D4FF91EF91BF91AF919F91B3
:1007A0008F917F916F915F914F913F912F910F901A
:1007B0000FBE0F901F90189582E084BD85BD9FE706
:1007C00097BD16BC85BB80936E0008951F920F9253
:1007D0000FB60F9211242F933F934F935F936F9314
:1007E0007F938F939F93AF93BF93EF93FF9381E09A
:1007F00080931303E0917A02F0917B020680F781E7
:10080000E02D89E792E009951092130309D4811134
:1008100017D4FF91EF91BF91AF919F918F917F91ED
:100820006F915F914F913F912F910F900FBE0F905D
:100830001F9018951F920F920FB60F9211242F93AD
:100840003F934F935F936F937F938F939F93AF9358
:10085000BF93EF93FF9381E080931303E0917A02BB
:10086000F0917B020184F285E02D89E792E0099501
:1008700010921303D5D38111E3D3FF91EF91BF9170
:10088000AF919F918F917F916F915F914F913F9128
:100890002F910F900FBE0F901F9018951F920F92DF
:1008A0000FB60F9211242F933F934F935F936F9343
:1008B0007F938F939F93AF93BF93EF93FF9381E0C9
:1008C00080931303E0917A02F0917B020484F58512
:1008D000E02D89E792E0099510921303A1D38111CD
:1008E000AFD3FF91EF91BF91AF919F918F917F9186
:1008F0006F915F914F913F912F910F900FBE0F908D
:100900001F90189589E792E05CDE82E080937F0279
:1009100008958F929F92AF92BF92CF92DF92EF9203
:10092000FF92CF93DF9300D000D01F92CDB7DEB7F8
:100930009C01DC018C91813081F00F900F900F9021
:100940000F900F90DF91CF91FF90EF90DF90CF90BD
:10095000BF90AF909F908F90089585E0EEE0F1E01A
:10096000DE01119601900D928A95E1F7D901119659
:10097000ED91FC91129780809180A280B380FE015E
:10098000319690E0C12C84E2D82E84EFE82EF12C31
:10099000B701A601019004C07695679557954795D4
:1009A0000A94D2F79F5F481559056A057B0591F1B6
:1009B000953071F79DE141E050E0B2E029373B0707
:1009C00059F1F90163817481709387006093860007
:1009D00086E1849FF001859FF00D1124E35DFE4FB9
:1009E000A081B18182E08C93A281B3819C93D901D3
:1009F00011968D919C911297DC0116968D919C9188
:100A00001797892B09F499CF0288F389E02D81E0AB
:100A1000808393CF9861CFCF40E050E0D2CFAF92A8
:100A2000BF92CF92DF92EF92FF920F931F93CF93DB
:100A3000DF93FC01262F30E0A181B2818901000FF4
:100A4000111FC801820F931FA80FB91F18967C9120
:100A5000C1E0D0E082E0E937F80709F4A5C086E1FB
:100A60008C9FD0018D9FB00D1124A35DBE4FED90E2
:100A7000FC90D7018C91A62FAA0F97E09A1BA1E0BA
:100A8000B0E06D0101C0CC0C9A95EAF793E0A92E75
:100A9000B12CA21AB30AAA0C01C0AA0FAA94EAF7B1
:100AA000BA2EBC289B2D90959823D7019C9371302A
:100AB00009F471C0723009F472C0613009F45AC08F
:100AC000623009F446C086E18C9FD0018D9FB00D45
:100AD0001124A35DBE4F14968D919C911597169687
:100AE0006D917C911797DC015C93DB014C9386E15F
:100AF0008C9FD0018D9FB00D1124A35DBE4F5096E9
:100B0000CD91DC915197C901019641E050E001C0BF
:100B1000440F8A95EAF748830180F281E02D200F87
:100B2000311FE20FF31F81859285892B39F0529690
:100B3000ED91FC9153978081482B4083DF91CF91B9
:100B40001F910F91FF90EF90DF90CF90BF90AF90EB
:100B5000089586E18C9FD0018D9FB00D1124A35D77
:100B6000BE4F1C968D919C911D971E966D917C9108
:100B70001F97B9CF86E18C9FD0018D9FB00D1124B6
:100B8000A35DBE4F18968D919C9119971A966D9101
:100B90007C911B97A8CF8C91C82ACC928ECFD7017D
:100BA0008C918B298C9389CFC0E0D0E058CFE1ECB9
:100BB000F0E080818062808308951F920F920FB6CB
:100BC0000F9211242F933F934F935F936F937F93D3
:100BD0008F939F93AF93BF93EF93FF9381E08093A5
:100BE00013038091C000982F9C7141F082FD21C0B9
:100BF00060E084FD606482E892E005D46091C60004
:100C000080E892E05DDD109213030AD2811118D2C0
:100C1000FF91EF91BF91AF919F918F917F916F91D4
:100C20005F914F913F912F910F900FBE0F901F90AA
:100C3000189560E2DECF1F920F920FB60F9211242B
:100C40002F933F934F935F936F937F938F939F93D4
:100C5000AF93BF93EF93FF9381E08093130380E8FA
:100C600092E052DD97FD18C08093C60010921303E6
:100C7000D7D18111E5D1FF91EF91BF91AF919F91B4
:100C80008F917F916F915F914F913F912F910F9035
:100C90000FBE0F901F9018958091C1008F7D80939B
:100CA000C100E4CF47ED55E060E070E080E892E0FD
:100CB000D7CCCF93DF93C9ECD2E081E088831A824E
:100CC0001982C6D306D466E471E08CEC92E0F8D1C8
:100CD00082E088837894DF91CF91089568C0CF93A4
:100CE000DF93DC0119963C932E93189717965C932B
:100CF0004E9316971B961C921E921A97E091D30260
:100D0000F091D402248135812617370750F4621BF5
:100D1000730B0190F081E02D248135812617370770
:100D2000B0F315967C936E9314971196FC93EE9303
:100D3000C281D3811396DC93CE931297B983A88393
:100D4000B383A28384819581861B970B95838483CB
:100D50008FEF9FEF9093D8028093D702DF91CF91CE
:100D60000895CF93DF93FC01A081B18114962D915A
:100D70003C91159784819581820F931F15969C93C2
:100D80008E931497C281D381B983A883A081B18146
:100D90001396DC93CE931297118210828FEF9FEF00
:100DA0009093D8028093D702DF91CF9108950F934B
:100DB0001F93CF93DF938091D9029091DA0201962D
:100DC0009093DA028093D902C091D302D091D402D9
:100DD00042E0C33DD40741F18C819D8101979D8301
:100DE0008C830FEF1FEF1EC0EA81FB818881998100
:100DF00091838083A881B9811396FC93EE93129717
:100E00001982188268857985EE81FF81CE01099566
:100E10008A859B85009769F4C091D302D091D40252
:100E20008C819D81892B01F3DF91CF911F910F91CF
:100E30000895E091D302F091D402248135812817DE
:100E4000390750F4821B930B0190F081E02D24812F
:100E5000358128173907B0F39D838C83F983E883A4
:100E6000A281B381BB83AA83CD93DC93D383C28356
:100E700024813581A901481B590B55834483109364
:100E8000D8020093D702C8CFCF93DF93DB011F9620
:100E90008C911F978430F1F180F5882359F18330CC
:100EA00031F45296ED91FC915397118210828FEF9D
:100EB0009FEF53969C938E9352971F961C921F9769
:100EC0001B96ED91FC911C9714969C9114970190A0
:100ED000F081E02D84818917D0F71196FC93EE9371
:100EE000C281D3811396DC93CE931297B983A883E2
:100EF000B383A283DF91CF910895873059F08C306E
:100F000049F08530A1F65296ED91FC91539784817A
:100F10008F5F84831296ED91FC9113978D919C9134
:100F2000119791838083CD91DC911197FB83EA83A4
:100F3000BECFCF93DF93DC011F961C921F971B96A9
:100F4000ED91FC911C9714962C9114970190F081CF
:100F5000E02D94819217D0F71196FC93EE93C28105
:100F6000D3811396DC93CE931297B983A883B3836E
:100F7000A283CD01DF91CF910895CF93DF93ECEC65
:100F8000F2E065817681DB011F968C9380819181EF
:100F9000EC01A881B981B183A0831396FC93EE93F1
:100FA000129721E02F8796838583A7D2DF91CF9177
:100FB0000895FF920F931F93CF93DF93CDB7DEB7C2
:100FC0002C970FB6F894DEBF0FBECDBFF82E009160
:100FD000D1021091D2026F3F8FEF7807F1F09801A4
:100FE00044E457E0CE0101967ADE8F2DC6DF898179
:100FF0009A81892B19F0CE010196B3DEF80182891E
:1010000093892C960FB6F894DEBF0FBECDBFDF914B
:10101000CF911F910F91FF9008958F2DAEDFEECFEE
:10102000A091CC02B091CD02E091D102F091D20218
:1010300081E014962C919481921708F080E0089535
:10104000CF93DF93A091D102B091D2024091CC0214
:101050005091CD02EA01E881F981F093CD02E0934D
:10106000CC028CEC92E09383828381E08F87509353
:10107000D2024093D1021F961C921F971B96ED91AE
:10108000FC911C9714962C9114970190F081E02DFF
:1010900094812917D0F31196FC93EE93828193816A
:1010A00013969C938E931297EC01B983A883B38314
:1010B000A283BD01CA0121D2DF91CF910895FFCF54
:1010C000DF92EF92FF920F931F93CF93DF93CDB7F1
:1010D000DEB72B970FB6F894DEBF0FBECDBF8C01E5
:1010E0007B019093CB028093CA02FC01148E138E75
:1010F00072A361A3DD24D394D092130391838083E0
:101100009383828314824796908F878B928F818FEF
:10111000158E168E178E10A2409790878783928720
:1011200081878FEF9FEF948783871686158620919E
:10113000D9023091DA022787308B118A128A138AFA
:10114000148A158A168AEF5BFF4F11821082B8014C
:101150006D5D7F4F20E841E551E0C8012AD0F801DC
:1011600096838583FC01D7868CE491E09A838983FA
:10117000F701828193819C838B83848195819E83F7
:101180008D83DF828FE598E0998788871B861A8692
:10119000CE0101969ED02B960FB6F894DEBF0FBEFF
:1011A000CDBFDF91CF911F910F91FF90EF90DF9016
:1011B0000895CF93DF93FB01248332E03787108AB1
:1011C00094878387258F148E138E128E21E0218BB6
:1011D000568745879B01295F3F4FAC01495E5F4FB2
:1011E00050874783EC01A98DBA8DB287A1872D93D3
:1011F0003C933A8F298FCB014496958B848B029632
:10120000978B868B918F808FCB01DF91CF91089543
:10121000CF93DF93DC0114962D913C911597F90142
:101220007E97E901E397D683C58317968C9117972C
:101230008A8B18968C911897898B19968C9119978F
:10124000888B1A968C911A978F878CEA9AE09B8BE1
:101250008C8B16968C9116974D915C91848392E0BD
:101260009787108A6CEC72E074876387858F148E81
:10127000138E128E81E0818B56874587D90157974F
:1012800083EE92E011969C938E93EB01898D9A8D5B
:1012900013969C938E931297EC01B983A883EB016C
:1012A000BA8FA98F1D960B2E11960C921197AC93A5
:1012B00012960B2E11960C921197AC930A2E1B2EA0
:1012C00013961C920E9211241297CF01DF91CF91A9
:1012D00008959EDF2ECE0F931F93CF93DF93C0917F
:1012E000D102D091D2029B8B8A8B8E010C5E1F4F54
:1012F0008C899D890817190759F0FC0120813181DB
:101300003D8B2C8B16DE8C899D8980179107A9F760
:10131000898981110CC0E985FA858F81988591832F
:101320008083AF81B8851396FC93EE9312978FE07C
:10133000DF91CF911F910F9120CEF894CCCFF894EC
:10134000BC0188E036DE78940895FC0191838083A7
:10135000938382830895CF93DF93E091D102F0913C
:10136000D2026115710579F091838083EC01AA8125
:10137000BB81B383A283ED93FC93FB83EA8384E078
:10138000DF91CF9116CE8FEF9FEFDF91CF91089530
:10139000CF93DF93FC0180819181E817F90771F009
:1013A000EC01A881B981B183A0831396FC93EE93DD
:1013B00012977B8B6A8BDF91CF91BBCDDF91CF9161
:1013C0000895FC0191838083938382831582148224
:1013D0000895FC01918380830895FC01928D692B0F
:1013E000628F87858A3059F08B3009F008958289A1
:1013F00068238613FBCF138A128ACF019ACD828984
:101400006823C9F70895EF92FF921F93CF93DF935C
:101410007C01162FFC01C081D1818C179D0791F0B2
:101420008D81812B8D83112319F08E81812321F0F1
:101430006C818A819B81D1DF0990D881C02DEC1607
:10144000FD0671F7DF91CF911F91FF90EF90089506
:10145000EFE0F3E087EE91E09183808387E692E00E
:10146000938382830895F89420911103309112039D
:10147000F901E81BF90B7195619571096E237F23C2
:10148000CB01841B950B40910F03509110038417DF
:10149000950750F02817390738F09093120380937E
:1014A0001103CB017894089580E090E0789408953A
:1014B000EFE0F3E040815181DC0111965C934E93A3
:1014C00022813381241B350B13963C932E93129764
:1014D0000895CF93DF93C7E6D2E083E39AE0998340
:1014E000888389E692E0E4DF1F821E8219861886CF
:1014F00081E792E0DF91CF9164CF2F923F924F929C
:101500005F926F927F928F929F92AF92BF92CF9293
:10151000DF92EF92FF920F931F93CF93DF93FB0124
:101520000DB605820EB60682FC0105800DBE068052
:101530000EBEDF91CF911F910F91FF90EF90DF9042
:10154000CF90BF90AF909F908F907F906F905F9063
:101550004F903F902F9008957894C201F101099522
:10156000ECCE0E946300A5DB219A299A60E071E02D
:1015700089E792E02ED840917C0250917D0288E864
:1015800093E1489F9001499F300D589F300D1124E1
:10159000329522952F7023273F702327A7E4B3E0CD
:1015A000E3D2AC0156954795569547955695479584
:1015B00060E089E792E023D888E09DE3C0DEFCCFBD
:1015C000ABE0B0E0E5EEFAE0E2C26C017B013A018B
:1015D000FC0117821682838181FFF9C0CE0101963A
:1015E0004C01F601B380F701B3FC0591B3FE019104
:1015F0007F01002309F4E7C0053249F4B3FC0591EB
:10160000B3FE01917F01053211F010E017C0B60161
:10161000802F90E049D353013501E3CF002309F433
:10162000D2C0602F70E08FE690E0ECD2892B49F0B9
:10163000F701B3FC0591B3FE01917F0117FFEECFD7
:1016400004C0033239F00C3619F0011105C0BBC0DB
:101650001068EECF10E1ECCF602F70E088E690E0EC
:10166000D1D2892B41F05301F4E0AF0EB11CB60189
:101670008FE390E010C0033631F0033771F003358B
:1016800001F511600AC0530182E0A80EB11CB60139
:10169000F3018081918108D3BFCF5301F2E0AF0EF7
:1016A000B11CF30160807180F30110FD859110FF82
:1016B00081913F01882309F4AFCFB60190E0F4D2C5
:1016C000F3CF043611F0093621F5530117FF09C095
:1016D000F4E0AF0EB11CF3016081718182819381CE
:1016E0000AC0F2E0AF0EB11CF30160817181072ED8
:1016F000000C880B990B1F7E97FF08C09095809572
:10170000709561957F4F8F4F9F4F10642AE030E0B6
:1017100030C0003791F040F40835A1F00F3609F0E1
:1017200052C028E030E011C0053719F0083731F019
:101730004AC01F7E2AE030E008C01061146220E138
:1017400030E003C0146020E132E0530117FF09C00C
:10175000F4E0AF0EB11CF30160817181828193814D
:1017600008C0F2E0AF0EB11CF3016081718180E02E
:1017700090E0A401EED2082F081916FF04C0B601AC
:101780008DE290E091D214FF13C0FE01E00FF11D35
:101790008081803369F0B60180E390E085D212FF4A
:1017A00007C01072812F90E0B601885A9F4F7CD2FB
:1017B0000150F401E00FF11D8081B60190E074D278
:1017C0000111F6CF29CFF6018681978102C08FEFF4
:1017D0009FEF2B96EEE0F7C120FD09C0FC0123FD31
:1017E00005C022FF02C07383628351834083089542
:1017F00044FD17C046FD17C0AB01BC01DA01FB0177
:10180000AA0FBB1FEE1FFF1F1094D1F74A0F5B1FDB
:101810006E1F7F1FCB01BA01660F771F881F991FAC
:1018200009C033E001C034E0660F771F881F991F9D
:101830003150D1F7620F711D811D911D08950F93D5
:101840001F93CF93DF938C01C801F0D1EC0197FD7A
:1018500006C0D0D1892BC1F7B801CE0161D2CE012B
:10186000DF91CF911F910F9108958F929F92AF9228
:10187000BF92EF92FF920F931F93CF93DF938C0150
:10188000D62F7A01B22ED2D19C0133272B323105CB
:1018900031F02D32310559F48B2D8068B82ED1509E
:1018A00011F480E061C0C801C1D197FDFACFCB2D02
:1018B000CD7F2B2D2073F9F48033E9F4AA24AA9468
:1018C000AD0E09F43EC0C801B1D197FD3AC09C01EC
:1018D0002F7D33272835310541F4C264D25089F178
:1018E000C801A4D197FF07C02CC0B6FE02C0C260D9
:1018F00001C0C261DA2D812C912C540120ED280FFA
:10190000283078F0C4FF03C0B8010AD217C02A30CB
:1019100040F0C6FFF9CF2F7D3FEE320F3630A0F7F3
:1019200027504C2FC501B40163DF4B015C01C2603D
:10193000D15051F0C8017AD197FFE0CFC1FD04C06A
:10194000B0CF812C912C5401C7FF08C0B094A09453
:1019500090948094811C911CA11CB11C2C2FB5016A
:10196000A401C70139DF81E0DF91CF911F910F9171
:10197000FF90EF90BF90AF909F908F900895A0E060
:10198000B0E0E4ECFCE002C16C01EB015A01FC01A7
:1019900017821682512CF601F380FE01F3FC85912B
:1019A000F3FE8191182FEF01882309F4D4C090E051
:1019B00021D1892B19F0C60142DFEDCF153241F458
:1019C000FE01F3FC1591F3FE1191EF01153271F454
:1019D000C6012CD197FDBDC0412F50E09C0133279B
:1019E00024173507C1F2B6019BD1B5C01A3239F4BC
:1019F000F3FC1591F3FE1191EF0101E001C000E04D
:101A0000E12C20ED210F2A3078F402606E2D70E079
:101A100080E090E040E2ECDEE62EFE01F3FC159162
:101A2000F3FE1191EF01EDCF01FF03C0E11003C000
:101A300092C0EE24EA94183619F01C3651F010C00A
:101A4000FE01F3FC1591F3FE1191EF01183641F4FC
:101A500008600460FE01F3FC1591F3FE1191EF01A3
:101A6000112309F478C0612F70E08FE790E0CAD0AD
:101A7000892B09F470C000FD07C0F50180809180BA
:101A8000C50102965C0102C0812C912C1E3649F4DE
:101A9000F6014681578160E070E0202FC4019CDE92
:101AA0007ACF1336A1F401FD02C0EE24E394C601FF
:101AB000BDD097FD4EC08114910429F0F4018083BC
:101AC000C40101964C01EA94E110F1CF3EC0C60179
:101AD000B6DE97FD3EC01F3649F128F4143621F1D9
:101AE000193639F125C0133771F01537E9F020C0E8
:101AF0008114910429F0F4016082C40101964C0123
:101B0000EA94EE2059F0C60191D03C0197FD06C041
:101B100071D0892B69F3B601C30102D181149104FC
:101B2000A1F0F401108211C0006203C0006101C085
:101B30000064202FA4016E2DC60197DE811105C01F
:101B4000F6018381807329F406C000FD24CF5394ED
:101B500022CF552019F0852D90E002C08FEF9FEF26
:101B6000CDB7DEB7EFE02EC0A29FB001B39FC0019A
:101B7000A39F700D811D1124911DB29F700D811DB9
:101B80001124911D08952F923F924F925F926F9270
:101B90007F928F929F92AF92BF92CF92DF92EF92FD
:101BA000FF920F931F93CF93DF93CDB7DEB7CA1B7E
:101BB000DB0B0FB6F894DEBF0FBECDBF09942A88A9
:101BC000398848885F846E847D848C849B84AA8451
:101BD000B984C884DF80EE80FD800C811B81AA81DE
:101BE000B981CE0FD11D0FB6F894DEBF0FBECDBFA9
:101BF000ED01089591110BC1803219F08950855083
:101C0000D0F70895FC010590061621F00020D9F7C1
:101C1000C00108953197CF010895FB01DC0102C096
:101C200001900D9241505040D8F70895CF93DF9323
:101C3000EC012B8120FF33C026FF0AC02F7B2B83B2
:101C40008E819F8101969F838E838A8190E029C037
:101C500022FF0FC0E881F9818081082E000C990BCA
:101C6000009719F420622B831AC03196F983E88318
:101C70000EC0EA85FB85099597FF09C02B81019667
:101C800011F080E201C080E1822B8B8308C02E819D
:101C90003F812F5F3F4F3F832E83992702C08FEFF5
:101CA0009FEFDF91CF9108950F931F93CF93DF9311
:101CB000FB01238121FD03C08FEF9FEF2CC022FF8A
:101CC00016C046815781248135814217530744F459
:101CD000A081B1819D012F5F3F4F318320838C9381
:101CE000268137812F5F3F4F3783268314C08B01B6
:101CF000EC01FB010084F185E02D0995892BE1F6CB
:101D0000D80116968D919C911797019617969C93E2
:101D10008E931697CE01DF91CF911F910F91089569
:101D2000FB01238120FF12C026FD10C08F3F3FEF33
:101D3000930761F082832F7D20642383268137817E
:101D40002150310937832683992708958FEF9FEF1C
:101D50000895FA01AA27283051F1203181F1E89441
:101D60006F936E7F6E5F7F4F8F4F9F4FAF4FB1E08E
:101D70003ED0B4E03CD0670F781F891F9A1FA11D89
:101D8000680F791F8A1F911DA11D6A0F711D811D8A
:101D9000911DA11D20D009F468943F912AE0269F4F
:101DA00011243019305D3193DEF6CF010895462FAE
:101DB0004770405D4193B3E00FD0C9F7F6CF462F8F
:101DC0004F70405D4A3318F0495D31FD40524193F8
:101DD00002D0A9F7EACFB4E0A695979587957795B5
:101DE0006795BA95C9F700976105710508959B013C
:101DF000AC010A2E06945795479537952795BA95C5
:101E0000C9F7620F731F841F951FA01D089599279E
:081E100088270895F894FFCF24
:101E1800093D0000093D0000010000020000000328
:101E280006080A00001603100322031C0320031AE5
:101E38000314030E032603FF20FF00FF0280008126
:101E480000890088008B008A000000000036006FBF
:101E580000860063300043017C01E70169646C651A
:101E6800006D61696E002B403802021E04050709E7
:101E78000D000F1000000000000000150201000115
:0C1E8800000000000000050007171B1DF3
:00000001FF
