:1000000044C000005FC000005DC000005BC0000095
:1000100059C0000057C0000055C0000053C0000088
:1000200051C000004FC000004DC000004BC0000098
:1000300049C0000047C0000086C3000043C0000064
:1000400041C000003FC00000B9C30000F5C300007C
:1000500039C0000037C0000035C0000033C00000C8
:1000600031C000002FC0000045464765666700208C
:100070002B2D2E3031323334353637383968006322
:1000800064696E6F70737578580011241FBECFEFCE
:10009000D8E0DEBFCDBF11E0A0E0B1E0E8EDFDE1CA
:1000A00002C005900D92AC36B107D9F724E0ACE65A
:1000B000B1E001C01D92AB3CB207E1F70E94A70A74
:1000C0000C94EA0E9DCF0CD384E191E00AD395D233
:1000D00003D300C063C3AF92BF92CF92DF92EF927F
:1000E000FF920F931F93CF93DF93EC016B018A0173
:1000F0008C819D818417950710F40C811D816C857E
:100100007D85E884F984E61AF70A0E151F0598F133
:10011000E016F106D0F0A801C6010E94ED0D8E8117
:100120009F819D878C878C819D81801B910B9D83F6
:100130008C83C801DF91CF911F910F91FF90EF90B9
:10014000DF90CF90BF90AF900895A701C6010E94A5
:10015000ED0D5801AE18BF086E817F81A501C60163
:100160008E0D9F1D0E94ED0D8E819F81A80EB91EE0
:10017000BD86AC86D8CFA801C6010E94ED0D8C8546
:100180009D85800F911F9D878C87CDCFAF92BF92A9
:10019000CF92DF92EF92FF920F931F93CF93DF9353
:1001A000EC016B018A018C819D818417950710F405
:1001B0000C811D818A859B85E884F984E81AF90AF7
:1001C0000E151F0598F1E016F106D0F0A801B60152
:1001D0000E94ED0D8E819F819B878A878C819D81F6
:1001E000801B910B9D838C83C801DF91CF911F9160
:1001F0000F91FF90EF90DF90CF90BF90AF90089558
:10020000A701B6010E94ED0D5801AE18BF08B60156
:100210006E0D7F1DA5018E819F810E94ED0D8E8147
:100220009F81A80EB91EBB86AA86D8CFA801B601A9
:100230000E94ED0D8A859B85800F911F9B878A8781
:10024000CDCFAF92BF92CF92DF92EF92FF920F93FA
:100250001F93CF93DF93EC017B016A0159011DD7F6
:100260001D821C82FF82EE82FD86EC86FB86EA867A
:10027000EC0CFD1CF986E886BF86AE86198B088BD0
:10028000DF91CF911F910F91FF90EF90DF90CF9072
:10029000BF90AF900895FC01A285B38584859585B4
:1002A000A817B907E1F0848195810196958384832D
:1002B000CD010196938782876C9322853385808553
:1002C00091852817390720F0868197819387828747
:1002D000CF0160E070E004D780E090E00895848171
:1002E0009581892B01F38FEF9FEF08950F931F9353
:1002F000CF93DF93EC018B01F89405C0B801CE01D8
:10030000D2D697FD27C08C819D81892BB9F38C8132
:100310009D8101979D838C83EC85FD85CF0101969E
:100320009D878C871081288539858217930720F057
:100330008E819F819D878C87EE85FF85309711F098
:10034000CE0109957894812F90E0DF91CF911F9194
:100350000F9108957894DF91CF911F910F91089597
:100360006F927F928F929F92AF92BF92CF92DF92C5
:10037000EF92FF920F931F93CF93DF936C017B015A
:100380003A014901FC01A684B784F894411551054E
:10039000B9F08A01A801B701C6019DDEEC01892BE5
:1003A00021F1A114B10419F0C601F5010995789461
:1003B0000C1B1D0BEC0EFD1EF8940115110551F7D9
:1003C00000E010E07894C301801B910BDF91CF9186
:1003D0001F910F91FF90EF90DF90CF90BF90AF9063
:1003E0009F908F907F906F900895B401C6015BD667
:1003F000892B81F2E7CFAF92BF92CF92DF92EF923B
:10040000FF920F931F93CF93DF93EC015B017A016F
:10041000690143D6FD82EC82BF82AE82BD86AC8686
:10042000BB86AA86EA0CFB1CF986E886DF86CE86A8
:10043000198B088BDF91CF911F910F91FF90EF9057
:10044000DF90CF90BF90AF900895FF920F931F93CE
:10045000CF93DF93EC01F62E8A01F89405C0B80122
:10046000CE0121D697FD2AC08C819D81892BB9F3BD
:100470008C819D8101979D838C83EA85FB85CF01CB
:1004800001969B878A87F0822A853B858885998596
:100490002817390720F08E819F819B878A87EE85F8
:1004A000FF85309711F0CE010995789480E090E0B7
:1004B000DF91CF911F910F91FF9008957894DF9174
:1004C000CF911F910F91FF900895CF93FC01A485C8
:1004D000B585828593858A179B07E1F08481958194
:1004E000019695838483CD01019695878487CC916D
:1004F000208531858217930740F4CF0160E070E0DA
:10050000EFD58C2F90E0CF910895868197819587C4
:100510008487F3CF84819581892B01F38FEF9FEF3F
:10052000F2CF6F927F928F929F92AF92BF92CF92B3
:10053000DF92EF92FF920F931F93CF93DF936C01A3
:100540007B013A014901FC01A684B784F894411566
:100550005105B9F08A01A801B701C60117DEEC0107
:10056000892B21F1A114B10419F0C601F5010995F7
:1005700078940C1B1D0BEC0EFD1EF8940115110553
:1005800051F700E010E07894C301801B910BDF91DC
:10059000CF911F910F91FF90EF90DF90CF90BF9080
:1005A000AF909F908F907F906F900895B401C60197
:1005B0007AD5892B81F2E7CF0596D2CE2FEF3FEF88
:1005C0000596CECE4796ADCF2FEF3FEF4796A9CFFA
:1005D00005968CCE6FEF7FEF059688CE479635CF88
:1005E0004FEF5FEF479631CF6130710519F08CEE18
:1005F0009FEF089580E090E0089555C1CF92DF927B
:10060000EF92FF920F931F93CF93DF93EC016B0157
:100610007A0120E031E0FC0121933193CF019BD698
:1006200081E08C83BE01675D7F4F8E01960140E1C2
:1006300050E0CE01059605DEBE01675C7F4F970155
:1006400040E150E0CE014796D6DEDF91CF911F9179
:100650000F91FF90EF90DF90CF9008951F93CF936D
:10066000DF93EC01162F89859A85892B51F0612F34
:10067000CE01059610DE97FD0EC0DF91CF911F9140
:10068000089564E0CE01029680D6612FCE010596D2
:1006900002DE97FFF2CF60E0CE010296DF91CF91AC
:1006A0001F9173C60F931F93CF93DF938C014796CF
:1006B0000CDFEC0197FD06C0CE01DF91CF911F91B9
:1006C0000F91089568E0C80102965FD6CE01DF91D0
:1006D000CF911F910F910895109269001DBA08954E
:1006E0000895FC01808185B9818184B9828188B9AE
:1006F000838187B984818BB985818AB90895FC018A
:100700004230C9F098F04530B1F0463021F4818193
:10071000682B618308954330E9F78181962F909586
:10072000892381838281682B62830895442319F091
:10073000413099F308958181609586238183828178
:100740006823628308951F920F920FB60F921124AF
:100750002F933F934F935F936F937F938F939F93C9
:10076000AF93BF93EF93FF9381E08093CA04B7D018
:100770001092CA04A4D28111B2D2FF91EF91BF911D
:10078000AF919F918F917F916F915F914F913F9129
:100790002F910F900FBE0F901F90189582E084BD8F
:1007A00085BD9FE797BD16BC85BB80936E000895FD
:1007B000E1ECF0E080818062808308951F920F92C7
:1007C0000FB60F9211242F933F934F935F936F9324
:1007D0007F938F939F93AF93BF93EF93FF9381E0AA
:1007E0008093CA048091C000982F9C7141F082FDD3
:1007F00021C060E084FD606489E394E0C6D5609127
:10080000C60087E394E02ADF1092CA0458D281110F
:1008100066D2FF91EF91BF91AF919F918F917F91A0
:100820006F915F914F913F912F910F900FBE0F905D
:100830001F90189560E2DECF1F920F920FB60F92B5
:1008400011242F933F934F935F936F937F938F93D5
:100850009F93AF93BF93EF93FF9381E08093CA047C
:1008600087E394E01FDF97FD18C08093C6001092C5
:10087000CA0425D2811133D2FF91EF91BF91AF917C
:100880009F918F917F916F915F914F913F912F91A8
:100890000F900FBE0F901F9018958091C1008F7D13
:1008A0008093C100E4CF48ED53E060E070E087E35F
:1008B00094E0A4CECF93DF93C0E8D4E081E08883B6
:1008C0001A82198287D5C7D56DE171E083E894E07B
:1008D00056D282E088837894DF91CF91089568C0E2
:1008E000CF93DF93DC0119963C932E9318971796BC
:1008F0005C934E9316971B961C921E921A97E0914A
:100900008A04F0918B04248135812617370750F42F
:10091000621B730B0190F081E02D24813581261735
:100920003707B0F315967C936E9314971196FC934A
:10093000EE93C281D3811396DC93CE931297B98341
:10094000A883B383A28384819581861B970B9583AB
:1009500084838FEF9FEF90938F0480938E04DF91B9
:10096000CF910895CF93DF93FC01A081B1811496BC
:100970002D913C91159784819581820F931F159637
:100980009C938E931497C281D381B983A883A0814D
:10099000B1811396DC93CE931297118210828FEF60
:1009A0009FEF90938F0480938E04DF91CF910895F1
:1009B0000F931F93CF93DF938091900490919104B4
:1009C00001969093910480939004C0918A04D091F1
:1009D0008B0444E0CA38D40741F18C819D81019792
:1009E0009D838C830FEF1FEF1EC0EA81FB818881FE
:1009F000998191838083A881B9811396FC93EE93AA
:100A000012971982188268857985EE81FF81CE015F
:100A100009958A859B85009769F4C0918A04D091D5
:100A20008B048C819D81892B01F3DF91CF911F91E4
:100A30000F910895E0918A04F0918B04248135810F
:100A40002817390750F4821B930B0190F081E02D99
:100A50002481358128173907B0F39D838C83F9836E
:100A6000E883A281B381BB83AA83CD93DC93D38334
:100A7000C28324813581A901481B590B55834483C6
:100A800010938F0400938E04C8CFCF93DF93DB01C4
:100A90001F968C911F978430F1F180F5882359F1CE
:100AA000833031F45296ED91FC915397118210826C
:100AB0008FEF9FEF53969C938E9352971F961C92A5
:100AC0001F971B96ED91FC911C9714969C9114977F
:100AD0000190F081E02D84818917D0F71196FC9365
:100AE000EE93C281D3811396DC93CE931297B98390
:100AF000A883B383A283DF91CF910895873059F003
:100B00008C3049F08530A1F65296ED91FC915397C7
:100B100084818F5F84831296ED91FC9113978D9160
:100B20009C91119791838083CD91DC911197FB83E8
:100B3000EA83BECFCF93DF93DC011F961C921F97F1
:100B40001B96ED91FC911C9714962C911497019093
:100B5000F081E02D94819217D0F71196FC93EE93DB
:100B6000C281D3811396DC93CE931297B983A88365
:100B7000B383A283CD01DF91CF910895CF93DF930B
:100B8000E3E8F4E065817681DB011F968C93808138
:100B90009181EC01A881B981B183A0831396FC9364
:100BA000EE93129721E02F879683858368D4DF9197
:100BB000CF910895FF920F931F93CF93DF93CDB7FB
:100BC000DEB72C970FB6F894DEBF0FBECDBFF82E60
:100BD00000918804109189046F3F8FEF7807F1F03E
:100BE000980145E455E0CE0101967ADE8F2DC6DFEF
:100BF00089819A81892B19F0CE010196B3DEF80123
:100C0000828993892C960FB6F894DEBF0FBECDBFB4
:100C1000DF91CF911F910F91FF9008958F2DAEDF3F
:100C2000EECFCF93DF93DC01C0918804D09189048B
:100C300053967C936E93529714962C9114978C81B3
:100C40008217E8F01F961C921F971B96ED91FC915E
:100C50001C970190F081E02D94819217D0F71196A6
:100C6000FC93EE93C281D3811396DC93CE931297BB
:100C7000B983A883B383A283DF91CF9108951F86A0
:100C8000EB85FC850190F081E02D94818917D0F3EC
:100C9000CD01F983E883A281B381BB83AA83CD937D
:100CA000DC93D383C28321E0FC01278790938904DE
:100CB00080938804BE01E3D3DF91CF910895A09182
:100CC0008304B0918404E0918804F091890481E068
:100CD00014962C919481921708F080E00895CF9398
:100CE000DF93A0918804B0918904409183045091CE
:100CF0008404EA01E881F981F0938404E093830499
:100D000083E894E09383828381E08F875093890402
:100D1000409388041F961C921F971B96ED91FC919F
:100D20001C9714962C9114970190F081E02D9481DA
:100D30002917D0F31196FC93EE9382819381139639
:100D40009C938E931297EC01B983A883B383A283FB
:100D5000BD01CA0194D3DF91CF910895A09183047E
:100D6000B0918404E0918804F091890414969C91D8
:100D70008481891708F00895B2CFF0CFFFCFDF92BA
:100D8000EF92FF920F931F93CF93DF93CDB7DEB710
:100D90002B970FB6F894DEBF0FBECDBF8C017B0141
:100DA0009093820480938104FC01148E138E72A3AD
:100DB00061A3DD24D394D092CA049183808393836A
:100DC000828314824796908F878B928F818F158EA6
:100DD000168E178E10A240979087878392878187FF
:100DE0008FEF9FEF94878387168615862091900456
:100DF000309191042787308B118A128A138A148AC2
:100E0000158A168AEF5BFF4F11821082B8016D5D63
:100E10007F4F20E84FE251E0C8012AD0F8019683C5
:100E20008583FC01D78683E291E09A838983F70169
:100E3000828193819C838B83848195819E838D8322
:100E4000DF828EEB96E0998788871B861A86CE0113
:100E500001969ED02B960FB6F894DEBF0FBECDBF85
:100E6000DF91CF911F910F91FF90EF90DF90089548
:100E7000CF93DF93FB01248332E03787108A948776
:100E80008387258F148E138E128E21E0218B568737
:100E900045879B01295F3F4FAC01495E5F4F5087FB
:100EA0004783EC01A98DBA8DB287A1872D933C931E
:100EB0003A8F298FCB014496958B848B0296978B22
:100EC000868B918F808FCB01DF91CF910895CF9347
:100ED000DF93DC0114962D913C911597F9017E97D3
:100EE000E901E397D683C58317968C9117978A8B70
:100EF00018968C911897898B19968C911997888BD5
:100F00001A968C911A978F878EE69AE09B8B8C8B22
:100F100016968C9116974D915C91848392E09787F9
:100F2000108A63E874E074876387858F148E138E4C
:100F3000128E81E0818B56874587D90157978AE9C0
:100F400094E011969C938E93EB01898D9A8D139664
:100F50009C938E931297EC01B983A883EB01BA8F0F
:100F6000A98F1D960B2E11960C921197AC93129689
:100F70000B2E11960C921197AC930A2E1B2E1396E2
:100F80001C920E9211241297CF01DF91CF910895F8
:100F90009EDFD0CD0F931F93CF93DF93F8946E51C4
:100FA0007109EC01C60FD71FFE017597FE83ED8313
:100FB000228B318B008B17878EE69AE0938B848B84
:100FC0004C8382E08F87188AE3E8F4E0FC87EB87A4
:100FD0004D8F1C8E1B8E1A8E81E0898B88E291E0EA
:100FE0009E878D87CE0107962AE934E038872F83C4
:100FF000A18DB28DBA87A9878D939C93928F818F93
:101000000D969D8B8C8B02969F8B8E8B998F888FE4
:1010100060E070E0CE0105DE7894CE01DF91CF91E3
:101020001F910F9108950F931F93CF93DF93C0915A
:101030008804D09189049B8B8A8B8E010C5E1F4F94
:101040008C899D890817190759F0FC01208131818D
:101050003D8B2C8B6FDD8C899D8980179107A9F7BB
:10106000898981110CC0E985FA858F8198859183E2
:101070008083AF81B8851396FC93EE9312978FE02F
:10108000DF91CF911F910F9179CDF894CCCFF89447
:10109000BC0188E08FDD78940895FC019183808302
:1010A000938382830895CF93DF93E0918804F09136
:1010B00089046115710579F091838083EC01AA811F
:1010C000BB81B383A283ED93FC93FB83EA8384E02B
:1010D000DF91CF916FCD8FEF9FEFDF91CF9108958B
:1010E000CF93DF93FC0180819181E817F90771F0BC
:1010F000EC01A881B981B183A0831396FC93EE9390
:1011000012977B8B6A8BDF91CF9114CDDF91CF91BA
:101110000895FC01918380839383828315821482D6
:1011200008950F931F93CF93DF93C0918804D091BC
:101130008904DC011496ED91FC911597309709F420
:10114000A8C08C018C819481981748F4848387858A
:10115000863009F463C0873089F18823F1F0F80103
:1011600004C024819C81291730F00190F081E02D8A
:101170000E171F07B1F7F983E883A281B381BB8300
:10118000AA83CD93DC93D383C2831B8B0A8B86E027
:10119000DF91CF911F910F91F1CC2281338180811A
:1011A0009181D9018D939C9380819181DC0113966B
:1011B0003C932E931297CF01BDDCD1CF2281338196
:1011C00080819181D9018D939C9380819181DC01F3
:1011D00013963C932E93129722893389A90106C056
:1011E000DA0114969C918481981730F0DA014D91C0
:1011F0005C9124173507A1F751834083DA011296D9
:101200008D919C91139793838283DC01ED93FC93E2
:10121000DA011396FC93EE931297A1CF22813381CA
:1012200080819181D9018D939C9380819181DC0192
:1012300013963C932E93129722893389A90106C0F5
:10124000DA0114969C918481981730F0DA014D915F
:101250005C9124173507A1F751834083DA01129678
:101260008D919C91139793838283DC01ED93FC9382
:10127000DA011396FC93EE9312970288F389E02D1E
:101280000480F581E02D8C819481981708F45ECF5D
:1012900066CFFC01D583C4832B8D3C8D3783268399
:1012A0009C8F8B8FDF91CF911F910F910895F894B0
:1012B00038DF78940895CF93DF93EC014091880450
:1012C00050918904F894EE81FF81DA015C96FC93D9
:1012D000EE935B97A881B981A817B907A1F1DA014C
:1012E0005D962C91309779F0A081B181EA17FB07C8
:1012F00029F014969C91291708F4292F0680F7816C
:10130000E02D309789F7FE01DA0114962C93A8811D
:10131000B981CD91DC911197D183C083FB83EA839E
:10132000B583A4835B968D919C915C97978386830C
:101330005C96FC93EE935B97CD01FCDB1EDD78940D
:10134000DF91CF91089515961C921E921497789470
:10135000DF91CF910895FC01918380830895FC0172
:10136000928D692B628F87858A3059F08B3009F016
:101370000895828968238613FBCF138A128ACF01CE
:10138000D9CB82896823C9F70895EF92FF921F9302
:10139000CF93DF937C01162FFC01C081D1818C1784
:1013A0009D0791F08D81812B8D83112319F08E8102
:1013B000812321F06C818A819B81D1DF0990D881C2
:1013C000C02DEC16FD0671F7DF91CF911F91FF90B4
:1013D000EF900895E6ECF4E087ED91E0918380834F
:1013E00087E592E0938382830895F8942091C8045E
:1013F0003091C904F901E81BF90B719561957109E8
:101400006E237F23CB01841B950B4091C604509122
:10141000C7048417950750F02817390738F09093C0
:10142000C9048093C804CB017894089580E090E0CB
:1014300078940895E6ECF4E040815181DC01119646
:101440005C934E9322813381241B350B13963C937E
:101450002E9312970895CF93DF93C7E5D2E085EFDF
:1014600099E09983888389E592E0E4DF1F821E82F8
:101470001986188681E692E0DF91CF914ACE2F92AD
:101480003F924F925F926F927F928F929F92AF9214
:10149000BF92CF92DF92EF92FF920F931F93CF9361
:1014A000DF93FB010DB605820EB60682FC010580B6
:1014B0000DBE06800EBEDF91CF911F910F91FF9060
:1014C000EF90DF90CF90BF90AF909F908F907F90E4
:1014D0006F905F904F903F902F9008957894C20145
:1014E000F1010995D2CDE0918804F09189048AE553
:1014F00091E0968785878FE294E0D9DE5F9A88E055
:101500009DE3C5DD5F9888E09DE3C1DD8FE294E057
:10151000D2DE8BE196E0BBDDEECFE0918804F09166
:10152000890483E691E0968785878FE294E0BFDEA9
:101530002D9A85E39CE0ABDD2D9885E39CE0A7DD4B
:101540008FE294E0B8DE8BE196E0A1DDEECF0E9461
:101550006300B0D946E060E889E290E0D0D846E088
:1015600060E283E290E0CBD85F982D988FE294E020
:10157000D0DD00E010E02DE83AE040E863EE70E0F6
:101580008CE493E007DD23E73AE040E863EE70E0A7
:1015900089E692E0FFDC88E09DE379DDFCCFABE0FB
:1015A000B0E0E4EDFAE0D3C26C017B013A01FC014A
:1015B00017821682838181FFF9C0CE0101964C010A
:1015C000F601B380F701B3FC0591B3FE01917F01F1
:1015D000002309F4E7C0053249F4B3FC0591B3FEDA
:1015E00001917F01053211F010E017C0B601802F84
:1015F00090E03AD353013501E3CF002309F4D2C080
:10160000602F70E08FE690E0DDD2892B49F0F70182
:10161000B3FC0591B3FE01917F0117FFEECF04C02B
:10162000033239F00C3619F0011105C0BBC0106847
:10163000EECF10E1ECCF602F70E088E690E0C2D2F0
:10164000892B41F05301F4E0AF0EB11CB6018FE3DA
:1016500090E010C0033631F0033771F0033501F527
:1016600011600AC0530182E0A80EB11CB601F3015B
:1016700080819181F9D2BFCF5301F2E0AF0EB11C4E
:10168000F30160807180F30110FD859110FF81915D
:101690003F01882309F4AFCFB60190E0E5D2F3CF44
:1016A000043611F0093621F5530117FF09C0F4E0A3
:1016B000AF0EB11CF30160817181828193810AC0F8
:1016C000F2E0AF0EB11CF30160817181072E000CB6
:1016D000880B990B1F7E97FF08C090958095709599
:1016E00061957F4F8F4F9F4F10642AE030E030C0EC
:1016F000003791F040F40835A1F00F3609F052C0E0
:1017000028E030E011C0053719F0083731F04AC041
:101710001F7E2AE030E008C01061146220E130E052
:1017200003C0146020E132E0530117FF09C0F4E068
:10173000AF0EB11CF301608171818281938108C079
:10174000F2E0AF0EB11CF3016081718180E090E0A6
:10175000A401DFD2082F081916FF04C0B6018DE2DC
:1017600090E082D214FF13C0FE01E00FF11D8081D2
:10177000803369F0B60180E390E076D212FF07C0B3
:101780001072812F90E0B601885A9F4F6DD20150A0
:10179000F401E00FF11D8081B60190E065D20111E6
:1017A000F6CF29CFF6018681978102C08FEF9FEF98
:1017B0002B96EEE0E8C120FD09C0FC0123FD05C029
:1017C00022FF02C07383628351834083089544FDE6
:1017D00017C046FD17C0AB01BC01DA01FB01AA0F1F
:1017E000BB1FEE1FFF1F1094D1F74A0F5B1F6E1F28
:1017F0007F1FCB01BA01660F771F881F991F09C091
:1018000033E001C034E0660F771F881F991F315005
:10181000D1F7620F711D811D911D08950F931F93C4
:10182000CF93DF938C01C801E1D1EC0197FD06C095
:10183000C1D1892BC1F7B801CE0152D2CE01DF91BF
:10184000CF911F910F9108958F929F92AF92BF9267
:10185000EF92FF920F931F93CF93DF938C01D62FBC
:101860007A01B22EC3D19C0133272B32310531F0DE
:101870002D32310559F48B2D8068B82ED15011F4DA
:1018800080E061C0C801B2D197FDFACFCB2DCD7FEA
:101890002B2D2073F9F48033E9F4AA24AA94AD0E19
:1018A00009F43EC0C801A2D197FD3AC09C012F7D2A
:1018B00033272835310541F4C264D25089F1C8017B
:1018C00095D197FF07C02CC0B6FE02C0C26001C010
:1018D000C261DA2D812C912C540120ED280F283083
:1018E00078F0C4FF03C0B801FBD117C02A3040F024
:1018F000C6FFF9CF2F7D3FEE320F3630A0F72750CD
:101900004C2FC501B40163DF4B015C01C260D150B3
:1019100051F0C8016BD197FFE0CFC1FD04C0B0CF3B
:10192000812C912C5401C7FF08C0B094A0949094CE
:101930008094811C911CA11CB11C2C2FB501A40109
:10194000C70139DF81E0DF91CF911F910F91FF90A7
:10195000EF90BF90AF909F908F900895A0E0B0E07F
:10196000E3EBFCE0F3C06C01EB015A01FC011782D0
:101970001682512CF601F380FE01F3FC8591F3FEF3
:101980008191182FEF01882309F4D4C090E012D17F
:10199000892B19F0C60142DFEDCF153241F4FE016B
:1019A000F3FC1591F3FE1191EF01153271F4C601AC
:1019B0001DD197FDBDC0412F50E09C013327241756
:1019C0003507C1F2B6018CD1B5C01A3239F4F3FC37
:1019D0001591F3FE1191EF0101E001C000E0E12C4F
:1019E00020ED210F2A3078F402606E2D70E080E047
:1019F00090E040E2ECDEE62EFE01F3FC1591F3FEF2
:101A00001191EF01EDCF01FF03C0E11003C092C0BF
:101A1000EE24EA94183619F01C3651F010C0FE017D
:101A2000F3FC1591F3FE1191EF01183641F40860B3
:101A30000460FE01F3FC1591F3FE1191EF011123F7
:101A400009F478C0612F70E08FE790E0BBD0892B5C
:101A500009F470C000FD07C0F50180809180C501C8
:101A600002965C0102C0812C912C1E3649F4F601CD
:101A70004681578160E070E0202FC4019CDE7ACF60
:101A80001336A1F401FD02C0EE24E394C601AED0EA
:101A900097FD4EC08114910429F0F4018083C401A4
:101AA00001964C01EA94E110F1CF3EC0C601B6DECA
:101AB00097FD3EC01F3649F128F4143621F119363E
:101AC00039F125C0133771F01537E9F020C08114C2
:101AD000910429F0F4016082C40101964C01EA945A
:101AE000EE2059F0C60182D03C0197FD06C062D0BD
:101AF000892B69F3B601C301F3D081149104A1F0DD
:101B0000F401108211C0006203C0006101C00064D2
:101B1000202FA4016E2DC60197DE811105C0F601AC
:101B20008381807329F406C000FD24CF539422CF13
:101B3000552019F0852D90E002C08FEF9FEFCDB7B3
:101B4000DEB7EFE01FC02F923F924F925F926F92ED
:101B50007F928F929F92AF92BF92CF92DF92EF923D
:101B6000FF920F931F93CF93DF93CDB7DEB7CA1BBE
:101B7000DB0B0FB6F894DEBF0FBECDBF09942A88E9
:101B8000398848885F846E847D848C849B84AA8491
:101B9000B984C884DF80EE80FD800C811B81AA811E
:101BA000B981CE0FD11D0FB6F894DEBF0FBECDBFE9
:101BB000ED01089591110BC1803219F089508550C3
:101BC000D0F70895FC010590061621F00020D9F702
:101BD000C00108953197CF010895FB01DC0102C0D7
:101BE00001900D9241505040D8F70895CF93DF9364
:101BF000EC012B8120FF33C026FF0AC02F7B2B83F3
:101C00008E819F8101969F838E838A8190E029C077
:101C100022FF0FC0E881F9818081082E000C990B0A
:101C2000009719F420622B831AC03196F983E88358
:101C30000EC0EA85FB85099597FF09C02B810196A7
:101C400011F080E201C080E1822B8B8308C02E81DD
:101C50003F812F5F3F4F3F832E83992702C08FEF35
:101C60009FEFDF91CF9108950F931F93CF93DF9351
:101C7000FB01238121FD03C08FEF9FEF2CC022FFCA
:101C800016C046815781248135814217530744F499
:101C9000A081B1819D012F5F3F4F318320838C93C1
:101CA000268137812F5F3F4F3783268314C08B01F6
:101CB000EC01FB010084F185E02D0995892BE1F60B
:101CC000D80116968D919C911797019617969C9323
:101CD0008E931697CE01DF91CF911F910F910895AA
:101CE000FB01238120FF12C026FD10C08F3F3FEF74
:101CF000930761F082832F7D2064238326813781BF
:101D00002150310937832683992708958FEF9FEF5C
:101D10000895FA01AA27283051F1203181F1E89481
:101D20006F936E7F6E5F7F4F8F4F9F4FAF4FB1E0CE
:101D30003ED0B4E03CD0670F781F891F9A1FA11DC9
:101D4000680F791F8A1F911DA11D6A0F711D811DCA
:101D5000911DA11D20D009F468943F912AE0269F8F
:101D600011243019305D3193DEF6CF010895462FEE
:101D70004770405D4193B3E00FD0C9F7F6CF462FCF
:101D80004F70405D4A3318F0495D31FD4052419338
:101D900002D0A9F7EACFB4E0A695979587957795F5
:101DA0006795BA95C9F700976105710508959B017C
:101DB000AC010A2E06945795479537952795BA9505
:101DC000C9F7620F731F841F951FA01D08959927DF
:081DD00088270895F894FFCF65
:101DD8000000E402DE02F002EA02EE02E802E20299
:101DE800DC02F402FF20FF00FF026330001A016CDE
:101DF80001D70169646C65006E6F6E616D65006D79
:101E080061696E002B403802021E040507090D00A7
:101E18000F10000000000000001502010001000082
:101E280000000000050007171B1D546872656164F7
:0C1E3800203200546872656164203100A3
:00000001FF
